{
  "contractName": "Counter",
  "abi": [
    {
      "inputs": [],
      "name": "incrementCounter",
      "outputs": [],
      "stateMutability": "nonpayable",
      "type": "function"
    },
    {
      "inputs": [],
      "name": "decrementCounter",
      "outputs": [],
      "stateMutability": "nonpayable",
      "type": "function"
    },
    {
      "inputs": [],
      "name": "addMoney",
      "outputs": [],
      "stateMutability": "payable",
      "type": "function"
    },
    {
      "inputs": [],
      "name": "getCount",
      "outputs": [
        {
          "internalType": "uint256",
          "name": "",
          "type": "uint256"
        }
      ],
      "stateMutability": "view",
      "type": "function"
    },
    {
      "inputs": [],
      "name": "getMoneyStored",
      "outputs": [
        {
          "internalType": "uint256",
          "name": "",
          "type": "uint256"
        }
      ],
      "stateMutability": "view",
      "type": "function"
    }
  ],
  "bytecode": "0x608060405260008055600060015534801561001957600080fd5b50610264806100296000396000f3fe60806040526004361061004a5760003560e01c80631b3f48421461004f5780635b34b96614610059578063a87d942c14610070578063e0a438fb1461009b578063f5c5ad83146100c6575b600080fd5b6100576100dd565b005b34801561006557600080fd5b5061006e6100f8565b005b34801561007c57600080fd5b50610085610113565b6040516100929190610150565b60405180910390f35b3480156100a757600080fd5b506100b061011c565b6040516100bd9190610150565b60405180910390f35b3480156100d257600080fd5b506100db610126565b005b34600160008282546100ef919061016b565b92505081905550565b600160008082825461010a919061016b565b92505081905550565b60008054905090565b6000600154905090565b600160008082825461013891906101c1565b92505081905550565b61014a816101f5565b82525050565b60006020820190506101656000830184610141565b92915050565b6000610176826101f5565b9150610181836101f5565b9250827fffffffffffffffffffffffffffffffffffffffffffffffffffffffffffffffff038211156101b6576101b56101ff565b5b828201905092915050565b60006101cc826101f5565b91506101d7836101f5565b9250828210156101ea576101e96101ff565b5b828203905092915050565b6000819050919050565b7f4e487b7100000000000000000000000000000000000000000000000000000000600052601160045260246000fdfea2646970667358221220764ef5294be5391323dc3249ab2ab2411601bdd1599b47db19f6167e09cb6da364736f6c63430008000033",
  "immutableReferences": {},
  "source": "pragma solidity >=0.4.22 <=0.8.0;\r\n\r\ncontract Counter {\r\n    uint256 private count = 0;\r\n    uint256 moneyStored = 0;\r\n\r\n    function incrementCounter() public {\r\n        count += 1;\r\n    }\r\n    function decrementCounter() public {\r\n        count -= 1;\r\n    }\r\n\r\n    function addMoney() payable public {\r\n        moneyStored += msg.value;\r\n    }\r\n\r\n    function getCount() public view returns (uint256) {\r\n        return count;\r\n    }\r\n\r\n    function getMoneyStored() public view returns (uint256){\r\n        return moneyStored;\r\n    }\r\n}",
  "sourcePath": "F:\\Blockchain\\OneScan-Verify\\Backend\\contracts\\Test.sol",
  "compiler": {
    "name": "solc",
    "version": "0.8.0+commit.c7dfd78e.Emscripten.clang"
  },
  "schemaVersion": "3.4.3",
  "updatedAt": "2021-09-28T06:19:28.154Z",
  "devdoc": {
    "kind": "dev",
    "methods": {},
    "version": 1
  },
  "userdoc": {
    "kind": "user",
    "methods": {},
    "version": 1
  }
}