{
  "contractName": "OnescanVerify",
  "abi": [
    {
      "inputs": [],
      "stateMutability": "nonpayable",
      "type": "constructor"
    },
    {
      "anonymous": false,
      "inputs": [
        {
          "indexed": true,
          "internalType": "address",
          "name": "previousOwner",
          "type": "address"
        },
        {
          "indexed": true,
          "internalType": "address",
          "name": "newOwner",
          "type": "address"
        }
      ],
      "name": "OwnershipTransferred",
      "type": "event"
    },
    {
      "inputs": [],
      "name": "approvalCounts",
      "outputs": [
        {
          "internalType": "uint256",
          "name": "",
          "type": "uint256"
        }
      ],
      "stateMutability": "view",
      "type": "function",
      "constant": true
    },
    {
      "inputs": [
        {
          "internalType": "address",
          "name": "",
          "type": "address"
        }
      ],
      "name": "issuerAddress",
      "outputs": [
        {
          "internalType": "bool",
          "name": "",
          "type": "bool"
        }
      ],
      "stateMutability": "view",
      "type": "function",
      "constant": true
    },
    {
      "inputs": [
        {
          "internalType": "uint256",
          "name": "",
          "type": "uint256"
        }
      ],
      "name": "issuerRequest",
      "outputs": [
        {
          "internalType": "address",
          "name": "issuerAddress",
          "type": "address"
        },
        {
          "internalType": "string",
          "name": "issuerCID",
          "type": "string"
        },
        {
          "internalType": "bool",
          "name": "approval",
          "type": "bool"
        }
      ],
      "stateMutability": "view",
      "type": "function",
      "constant": true
    },
    {
      "inputs": [],
      "name": "owner",
      "outputs": [
        {
          "internalType": "address",
          "name": "",
          "type": "address"
        }
      ],
      "stateMutability": "view",
      "type": "function",
      "constant": true
    },
    {
      "inputs": [],
      "name": "renounceOwnership",
      "outputs": [],
      "stateMutability": "nonpayable",
      "type": "function"
    },
    {
      "inputs": [
        {
          "internalType": "address",
          "name": "newOwner",
          "type": "address"
        }
      ],
      "name": "transferOwnership",
      "outputs": [],
      "stateMutability": "nonpayable",
      "type": "function"
    },
    {
      "inputs": [
        {
          "internalType": "string",
          "name": "_issuerCID",
          "type": "string"
        }
      ],
      "name": "applyForRequest",
      "outputs": [],
      "stateMutability": "nonpayable",
      "type": "function"
    },
    {
      "inputs": [
        {
          "internalType": "uint256",
          "name": "_index",
          "type": "uint256"
        }
      ],
      "name": "approveRequest",
      "outputs": [],
      "stateMutability": "nonpayable",
      "type": "function"
    },
    {
      "inputs": [],
      "name": "issuerRequestCount",
      "outputs": [
        {
          "internalType": "uint256",
          "name": "result",
          "type": "uint256"
        }
      ],
      "stateMutability": "view",
      "type": "function",
      "constant": true
    },
    {
      "inputs": [
        {
          "internalType": "address",
          "name": "_issuerAddress",
          "type": "address"
        }
      ],
      "name": "getOwnerContract",
      "outputs": [
        {
          "components": [
            {
              "internalType": "address",
              "name": "contractaddress",
              "type": "address"
            },
            {
              "internalType": "string",
              "name": "contractName",
              "type": "string"
            },
            {
              "internalType": "uint256",
              "name": "requestIndex",
              "type": "uint256"
            },
            {
              "internalType": "string",
              "name": "contractType",
              "type": "string"
            }
          ],
          "internalType": "struct OnescanVerify.IssuerContract[]",
          "name": "",
          "type": "tuple[]"
        }
      ],
      "stateMutability": "view",
      "type": "function",
      "constant": true
    },
    {
      "inputs": [
        {
          "internalType": "uint256",
          "name": "_index",
          "type": "uint256"
        },
        {
          "internalType": "string",
          "name": "_contractType",
          "type": "string"
        },
        {
          "internalType": "string",
          "name": "_contractName",
          "type": "string"
        }
      ],
      "name": "createNewContract",
      "outputs": [],
      "stateMutability": "nonpayable",
      "type": "function"
    }
  ],
  "bytecode": "0x608060405234801561001057600080fd5b5061002d61002261007360201b60201c565b61007b60201b60201c565b33600160006101000a81548173ffffffffffffffffffffffffffffffffffffffff021916908373ffffffffffffffffffffffffffffffffffffffff16021790555061013f565b600033905090565b60008060009054906101000a900473ffffffffffffffffffffffffffffffffffffffff169050816000806101000a81548173ffffffffffffffffffffffffffffffffffffffff021916908373ffffffffffffffffffffffffffffffffffffffff1602179055508173ffffffffffffffffffffffffffffffffffffffff168173ffffffffffffffffffffffffffffffffffffffff167f8be0079c531659141344cd1fd0a4f28419497f9722a3daafe3b4186f6b6457e060405160405180910390a35050565b615c5e806200014f6000396000f3fe60806040523480156200001157600080fd5b5060043610620000b85760003560e01c8063ca4f20ce116200007b578063ca4f20ce1462000165578063d480e74c146200019b578063d7d1bbdb14620001d1578063d9d989a014620001f1578063e929dbb01462000213578063f2fde38b146200023357620000b8565b806302fb063214620000bd5780635e82c51414620000df578063715018a614620001175780638da5cb5b1462000123578063b765f1dd1462000145575b600080fd5b620000c762000253565b604051620000d6919062001514565b60405180910390f35b620000fd6004803603810190620000f7919062000fc4565b62000259565b6040516200010e93929190620013e5565b60405180910390f35b6200012162000351565b005b6200012d620003e2565b6040516200013c9190620013c8565b60405180910390f35b6200016360048036038101906200015d919062000f7f565b6200040b565b005b6200018360048036038101906200017d919062000f53565b620005dd565b60405162000192919062001429565b60405180910390f35b620001b96004803603810190620001b3919062000f53565b62000814565b604051620001c891906200144d565b60405180910390f35b620001ef6004803603810190620001e9919062000fc4565b62000834565b005b620001fb62000956565b6040516200020a919062001514565b60405180910390f35b6200023160048036038101906200022b919062000ff0565b62000968565b005b6200025160048036038101906200024b919062000f53565b62000c25565b005b60035481565b600281815481106200026a57600080fd5b90600052602060002090600302016000915090508060000160009054906101000a900473ffffffffffffffffffffffffffffffffffffffff1690806001018054620002b590620016ea565b80601f0160208091040260200160405190810160405280929190818152602001828054620002e390620016ea565b8015620003345780601f10620003085761010080835404028352916020019162000334565b820191906000526020600020905b8154815290600101906020018083116200031657829003601f168201915b5050505050908060020160009054906101000a900460ff16905083565b6200035b62000d29565b73ffffffffffffffffffffffffffffffffffffffff166200037b620003e2565b73ffffffffffffffffffffffffffffffffffffffff1614620003d4576040517f08c379a0000000000000000000000000000000000000000000000000000000008152600401620003cb90620014d0565b60405180910390fd5b620003e0600062000d31565b565b60008060009054906101000a900473ffffffffffffffffffffffffffffffffffffffff16905090565b600560003373ffffffffffffffffffffffffffffffffffffffff1673ffffffffffffffffffffffffffffffffffffffff16815260200190815260200160002060009054906101000a900460ff16156200049b576040517f08c379a000000000000000000000000000000000000000000000000000000000815260040162000492906200148c565b60405180910390fd5b600260405180606001604052803373ffffffffffffffffffffffffffffffffffffffff16815260200183815260200160001515815250908060018154018082558091505060019003906000526020600020906003020160009091909190915060008201518160000160006101000a81548173ffffffffffffffffffffffffffffffffffffffff021916908373ffffffffffffffffffffffffffffffffffffffff16021790555060208201518160010190805190602001906200055f92919062000df5565b5060408201518160020160006101000a81548160ff02191690831515021790555050506001600560003373ffffffffffffffffffffffffffffffffffffffff1673ffffffffffffffffffffffffffffffffffffffff16815260200190815260200160002060006101000a81548160ff02191690831515021790555050565b6060600460008373ffffffffffffffffffffffffffffffffffffffff1673ffffffffffffffffffffffffffffffffffffffff168152602001908152602001600020600001805480602002602001604051908101604052809291908181526020016000905b828210156200080957838290600052602060002090600402016040518060800160405290816000820160009054906101000a900473ffffffffffffffffffffffffffffffffffffffff1673ffffffffffffffffffffffffffffffffffffffff1673ffffffffffffffffffffffffffffffffffffffff168152602001600182018054620006cd90620016ea565b80601f0160208091040260200160405190810160405280929190818152602001828054620006fb90620016ea565b80156200074c5780601f1062000720576101008083540402835291602001916200074c565b820191906000526020600020905b8154815290600101906020018083116200072e57829003601f168201915b50505050508152602001600282015481526020016003820180546200077190620016ea565b80601f01602080910402602001604051908101604052809291908181526020018280546200079f90620016ea565b8015620007f05780601f10620007c457610100808354040283529160200191620007f0565b820191906000526020600020905b815481529060010190602001808311620007d257829003601f168201915b5050505050815250508152602001906001019062000641565b505050509050919050565b60056020528060005260406000206000915054906101000a900460ff1681565b600015156002828154811062000873577f4e487b7100000000000000000000000000000000000000000000000000000000600052603260045260246000fd5b906000526020600020906003020160020160009054906101000a900460ff16151514620008d7576040517f08c379a0000000000000000000000000000000000000000000000000000000008152600401620008ce90620014f2565b60405180910390fd5b60016002828154811062000914577f4e487b7100000000000000000000000000000000000000000000000000000000600052603260045260246000fd5b906000526020600020906003020160020160006101000a81548160ff02191690831515021790555060016003546200094d9190620015fe565b60038190555050565b60008060028054905090508091505090565b3373ffffffffffffffffffffffffffffffffffffffff1660028481548110620009ba577f4e487b7100000000000000000000000000000000000000000000000000000000600052603260045260246000fd5b906000526020600020906003020160000160009054906101000a900473ffffffffffffffffffffffffffffffffffffffff1673ffffffffffffffffffffffffffffffffffffffff1614801562000a6d5750600115156002848154811062000a4a577f4e487b7100000000000000000000000000000000000000000000000000000000600052603260045260246000fd5b906000526020600020906003020160020160009054906101000a900460ff161515145b62000aaf576040517f08c379a000000000000000000000000000000000000000000000000000000000815260040162000aa690620014ae565b60405180910390fd5b60003360405162000ac09062000e86565b62000acc9190620013c8565b604051809103906000f08015801562000ae9573d6000803e3d6000fd5b509050600460003373ffffffffffffffffffffffffffffffffffffffff1673ffffffffffffffffffffffffffffffffffffffff16815260200190815260200160002060000160405180608001604052808373ffffffffffffffffffffffffffffffffffffffff16815260200184815260200186815260200185815250908060018154018082558091505060019003906000526020600020906004020160009091909190915060008201518160000160006101000a81548173ffffffffffffffffffffffffffffffffffffffff021916908373ffffffffffffffffffffffffffffffffffffffff160217905550602082015181600101908051906020019062000bf392919062000df5565b5060408201518160020155606082015181600301908051906020019062000c1c92919062000df5565b50505050505050565b62000c2f62000d29565b73ffffffffffffffffffffffffffffffffffffffff1662000c4f620003e2565b73ffffffffffffffffffffffffffffffffffffffff161462000ca8576040517f08c379a000000000000000000000000000000000000000000000000000000000815260040162000c9f90620014d0565b60405180910390fd5b600073ffffffffffffffffffffffffffffffffffffffff168173ffffffffffffffffffffffffffffffffffffffff16141562000d1b576040517f08c379a000000000000000000000000000000000000000000000000000000000815260040162000d12906200146a565b60405180910390fd5b62000d268162000d31565b50565b600033905090565b60008060009054906101000a900473ffffffffffffffffffffffffffffffffffffffff169050816000806101000a81548173ffffffffffffffffffffffffffffffffffffffff021916908373ffffffffffffffffffffffffffffffffffffffff1602179055508173ffffffffffffffffffffffffffffffffffffffff168173ffffffffffffffffffffffffffffffffffffffff167f8be0079c531659141344cd1fd0a4f28419497f9722a3daafe3b4186f6b6457e060405160405180910390a35050565b82805462000e0390620016ea565b90600052602060002090601f01602090048101928262000e27576000855562000e73565b82601f1062000e4257805160ff191683800117855562000e73565b8280016001018555821562000e73579182015b8281111562000e7257825182559160200191906001019062000e55565b5b50905062000e82919062000e94565b5090565b61443680620017f383390190565b5b8082111562000eaf57600081600090555060010162000e95565b5090565b600062000eca62000ec48462001565565b62001531565b90508281526020810184848401111562000ee357600080fd5b62000ef0848285620016a5565b509392505050565b60008135905062000f0981620017be565b92915050565b600082601f83011262000f2157600080fd5b813562000f3384826020860162000eb3565b91505092915050565b60008135905062000f4d81620017d8565b92915050565b60006020828403121562000f6657600080fd5b600062000f768482850162000ef8565b91505092915050565b60006020828403121562000f9257600080fd5b600082013567ffffffffffffffff81111562000fad57600080fd5b62000fbb8482850162000f0f565b91505092915050565b60006020828403121562000fd757600080fd5b600062000fe78482850162000f3c565b91505092915050565b6000806000606084860312156200100657600080fd5b6000620010168682870162000f3c565b935050602084013567ffffffffffffffff8111156200103457600080fd5b620010428682870162000f0f565b925050604084013567ffffffffffffffff8111156200106057600080fd5b6200106e8682870162000f0f565b9150509250925092565b600062001086838362001334565b905092915050565b62001099816200165b565b82525050565b620010aa816200165b565b82525050565b6000620010bd82620015a8565b620010c98185620015cb565b935083602082028501620010dd8562001598565b8060005b858110156200111f5784840389528151620010fd858262001078565b94506200110a83620015be565b925060208a01995050600181019050620010e1565b50829750879550505050505092915050565b6200113c816200166f565b82525050565b60006200114f82620015b3565b6200115b8185620015dc565b93506200116d818560208601620016b4565b6200117881620017ad565b840191505092915050565b60006200119082620015b3565b6200119c8185620015ed565b9350620011ae818560208601620016b4565b620011b981620017ad565b840191505092915050565b6000620011d3602683620015ed565b91507f4f776e61626c653a206e6577206f776e657220697320746865207a65726f206160008301527f64647265737300000000000000000000000000000000000000000000000000006020830152604082019050919050565b60006200123b601b83620015ed565b91507f416c6172656479207265676973746572206173204973737565722e00000000006000830152602082019050919050565b60006200127d601f83620015ed565b91507f4973737565722052657175657374206973206e6f7420617070726f7665642e006000830152602082019050919050565b6000620012bf602083620015ed565b91507f4f776e61626c653a2063616c6c6572206973206e6f7420746865206f776e65726000830152602082019050919050565b600062001301602083620015ed565b91507f497373756572207265717565737420616c726561647920617070726f7665642e6000830152602082019050919050565b60006080830160008301516200134e60008601826200108e565b506020830151848203602086015262001368828262001142565b91505060408301516200137f6040860182620013a6565b506060830151848203606086015262001399828262001142565b9150508091505092915050565b620013b1816200169b565b82525050565b620013c2816200169b565b82525050565b6000602082019050620013df60008301846200109f565b92915050565b6000606082019050620013fc60008301866200109f565b818103602083015262001410818562001183565b905062001421604083018462001131565b949350505050565b60006020820190508181036000830152620014458184620010b0565b905092915050565b600060208201905062001464600083018462001131565b92915050565b600060208201905081810360008301526200148581620011c4565b9050919050565b60006020820190508181036000830152620014a7816200122c565b9050919050565b60006020820190508181036000830152620014c9816200126e565b9050919050565b60006020820190508181036000830152620014eb81620012b0565b9050919050565b600060208201905081810360008301526200150d81620012f2565b9050919050565b60006020820190506200152b6000830184620013b7565b92915050565b6000604051905081810181811067ffffffffffffffff821117156200155b576200155a6200177e565b5b8060405250919050565b600067ffffffffffffffff8211156200158357620015826200177e565b5b601f19601f8301169050602081019050919050565b6000819050602082019050919050565b600081519050919050565b600081519050919050565b6000602082019050919050565b600082825260208201905092915050565b600082825260208201905092915050565b600082825260208201905092915050565b60006200160b826200169b565b915062001618836200169b565b9250827fffffffffffffffffffffffffffffffffffffffffffffffffffffffffffffffff0382111562001650576200164f62001720565b5b828201905092915050565b600062001668826200167b565b9050919050565b60008115159050919050565b600073ffffffffffffffffffffffffffffffffffffffff82169050919050565b6000819050919050565b82818337600083830152505050565b60005b83811015620016d4578082015181840152602081019050620016b7565b83811115620016e4576000848401525b50505050565b600060028204905060018216806200170357607f821691505b602082108114156200171a57620017196200174f565b5b50919050565b7f4e487b7100000000000000000000000000000000000000000000000000000000600052601160045260246000fd5b7f4e487b7100000000000000000000000000000000000000000000000000000000600052602260045260246000fd5b7f4e487b7100000000000000000000000000000000000000000000000000000000600052604160045260246000fd5b6000601f19601f8301169050919050565b620017c9816200165b565b8114620017d557600080fd5b50565b620017e3816200169b565b8114620017ef57600080fd5b5056fe60806040523480156200001157600080fd5b5060405162004436380380620044368339818101604052810190620000379190620002d2565b6040518060400160405280601881526020017f506879736963616c204365727469666963617465204e465400000000000000008152506040518060400160405280600381526020017f50434e0000000000000000000000000000000000000000000000000000000000815250620000c3620000b76200013f60201b60201c565b6200014760201b60201c565b8160019080519060200190620000db9291906200020b565b508060029080519060200190620000f49291906200020b565b50505080600c60006101000a81548173ffffffffffffffffffffffffffffffffffffffff021916908373ffffffffffffffffffffffffffffffffffffffff16021790555050620003b1565b600033905090565b60008060009054906101000a900473ffffffffffffffffffffffffffffffffffffffff169050816000806101000a81548173ffffffffffffffffffffffffffffffffffffffff021916908373ffffffffffffffffffffffffffffffffffffffff1602179055508173ffffffffffffffffffffffffffffffffffffffff168173ffffffffffffffffffffffffffffffffffffffff167f8be0079c531659141344cd1fd0a4f28419497f9722a3daafe3b4186f6b6457e060405160405180910390a35050565b828054620002199062000332565b90600052602060002090601f0160209004810192826200023d576000855562000289565b82601f106200025857805160ff191683800117855562000289565b8280016001018555821562000289579182015b82811115620002885782518255916020019190600101906200026b565b5b5090506200029891906200029c565b5090565b5b80821115620002b75760008160009055506001016200029d565b5090565b600081519050620002cc8162000397565b92915050565b600060208284031215620002e557600080fd5b6000620002f584828501620002bb565b91505092915050565b60006200030b8262000312565b9050919050565b600073ffffffffffffffffffffffffffffffffffffffff82169050919050565b600060028204905060018216806200034b57607f821691505b6020821081141562000362576200036162000368565b5b50919050565b7f4e487b7100000000000000000000000000000000000000000000000000000000600052602260045260246000fd5b620003a281620002fe565b8114620003ae57600080fd5b50565b61407580620003c16000396000f3fe6080604052600436106101405760003560e01c806367a466d4116100b6578063b88d4fde1161006f578063b88d4fde14610494578063c87b56dd146104bd578063d3cbaa15146104fa578063d645ddf614610537578063e985e9c514610567578063f2fde38b146105a457610140565b806367a466d41461038457806370a08231146103c1578063715018a6146103fe5780638da5cb5b1461041557806395d89b4114610440578063a22cb4651461046b57610140565b806323b872dd1161010857806323b872dd1461023e5780632f745c591461026757806336dbd2f9146102a457806342842e0e146102e15780634f6ccce71461030a5780636352211e1461034757610140565b806301ffc9a71461014557806306fdde0314610182578063081812fc146101ad578063095ea7b3146101ea57806318160ddd14610213575b600080fd5b34801561015157600080fd5b5061016c60048036038101906101679190612c6b565b6105cd565b60405161017991906138b8565b60405180910390f35b34801561018e57600080fd5b506101976105df565b6040516101a491906138d3565b60405180910390f35b3480156101b957600080fd5b506101d460048036038101906101cf9190612d54565b610671565b6040516101e19190613851565b60405180910390f35b3480156101f657600080fd5b50610211600480360381019061020c9190612c2f565b6106f6565b005b34801561021f57600080fd5b5061022861080e565b6040516102359190613bf5565b60405180910390f35b34801561024a57600080fd5b5061026560048036038101906102609190612b29565b61081b565b005b34801561027357600080fd5b5061028e60048036038101906102899190612c2f565b61087b565b60405161029b9190613bf5565b60405180910390f35b3480156102b057600080fd5b506102cb60048036038101906102c69190612d54565b610920565b6040516102d891906138b8565b60405180910390f35b3480156102ed57600080fd5b5061030860048036038101906103039190612b29565b610995565b005b34801561031657600080fd5b50610331600480360381019061032c9190612d54565b6109b5565b60405161033e9190613bf5565b60405180910390f35b34801561035357600080fd5b5061036e60048036038101906103699190612d54565b610a4c565b60405161037b9190613851565b60405180910390f35b34801561039057600080fd5b506103ab60048036038101906103a69190612d7d565b610afe565b6040516103b891906138d3565b60405180910390f35b3480156103cd57600080fd5b506103e860048036038101906103e39190612ac4565b610c8f565b6040516103f59190613bf5565b60405180910390f35b34801561040a57600080fd5b50610413610d47565b005b34801561042157600080fd5b5061042a610dcf565b6040516104379190613851565b60405180910390f35b34801561044c57600080fd5b50610455610df8565b60405161046291906138d3565b60405180910390f35b34801561047757600080fd5b50610492600480360381019061048d9190612bf3565b610e8a565b005b3480156104a057600080fd5b506104bb60048036038101906104b69190612b78565b61100b565b005b3480156104c957600080fd5b506104e460048036038101906104df9190612d54565b61106d565b6040516104f191906138d3565b60405180910390f35b34801561050657600080fd5b50610521600480360381019061051c9190612dd1565b611114565b60405161052e91906138b8565b60405180910390f35b610551600480360381019061054c9190612cbd565b6113b5565b60405161055e9190613bf5565b60405180910390f35b34801561057357600080fd5b5061058e60048036038101906105899190612aed565b61149d565b60405161059b91906138b8565b60405180910390f35b3480156105b057600080fd5b506105cb60048036038101906105c69190612ac4565b611531565b005b60006105d882611629565b9050919050565b6060600180546105ee90613e6a565b80601f016020809104026020016040519081016040528092919081815260200182805461061a90613e6a565b80156106675780601f1061063c57610100808354040283529160200191610667565b820191906000526020600020905b81548152906001019060200180831161064a57829003601f168201915b5050505050905090565b600061067c826116a3565b6106bb576040517f08c379a00000000000000000000000000000000000000000000000000000000081526004016106b290613ad5565b60405180910390fd5b6005600083815260200190815260200160002060009054906101000a900473ffffffffffffffffffffffffffffffffffffffff169050919050565b600061070182610a4c565b90508073ffffffffffffffffffffffffffffffffffffffff168373ffffffffffffffffffffffffffffffffffffffff161415610772576040517f08c379a000000000000000000000000000000000000000000000000000000000815260040161076990613b55565b60405180910390fd5b8073ffffffffffffffffffffffffffffffffffffffff1661079161170f565b73ffffffffffffffffffffffffffffffffffffffff1614806107c057506107bf816107ba61170f565b61149d565b5b6107ff576040517f08c379a00000000000000000000000000000000000000000000000000000000081526004016107f690613a15565b60405180910390fd5b6108098383611717565b505050565b6000600980549050905090565b61082c61082661170f565b826117d0565b61086b576040517f08c379a000000000000000000000000000000000000000000000000000000000815260040161086290613b75565b60405180910390fd5b6108768383836118ae565b505050565b600061088683610c8f565b82106108c7576040517f08c379a00000000000000000000000000000000000000000000000000000000081526004016108be90613915565b60405180910390fd5b600760008473ffffffffffffffffffffffffffffffffffffffff1673ffffffffffffffffffffffffffffffffffffffff168152602001908152602001600020600083815260200190815260200160002054905092915050565b600061092b826116a3565b61096a576040517f08c379a0000000000000000000000000000000000000000000000000000000008152600401610961906138f5565b60405180910390fd5b600d600083815260200190815260200160002060020160149054906101000a900460ff169050919050565b6109b08383836040518060200160405280600081525061100b565b505050565b60006109bf61080e565b8210610a00576040517f08c379a00000000000000000000000000000000000000000000000000000000081526004016109f790613b95565b60405180910390fd5b60098281548110610a3a577f4e487b7100000000000000000000000000000000000000000000000000000000600052603260045260246000fd5b90600052602060002001549050919050565b6000806003600084815260200190815260200160002060009054906101000a900473ffffffffffffffffffffffffffffffffffffffff169050600073ffffffffffffffffffffffffffffffffffffffff168173ffffffffffffffffffffffffffffffffffffffff161415610af5576040517f08c379a0000000000000000000000000000000000000000000000000000000008152600401610aec90613a75565b60405180910390fd5b80915050919050565b6060610b09836116a3565b610b48576040517f08c379a0000000000000000000000000000000000000000000000000000000008152600401610b3f906138f5565b60405180910390fd5b81604051602001610b5991906137ff565b60405160208183030381529060405280519060200120600d6000858152602001908152602001600020600101604051602001610b95919061383a565b6040516020818303038152906040528051906020012014610beb576040517f08c379a0000000000000000000000000000000000000000000000000000000008152600401610be290613bd5565b60405180910390fd5b600e60008481526020019081526020016000208054610c0990613e6a565b80601f0160208091040260200160405190810160405280929190818152602001828054610c3590613e6a565b8015610c825780601f10610c5757610100808354040283529160200191610c82565b820191906000526020600020905b815481529060010190602001808311610c6557829003601f168201915b5050505050905092915050565b60008073ffffffffffffffffffffffffffffffffffffffff168273ffffffffffffffffffffffffffffffffffffffff161415610d00576040517f08c379a0000000000000000000000000000000000000000000000000000000008152600401610cf790613a55565b60405180910390fd5b600460008373ffffffffffffffffffffffffffffffffffffffff1673ffffffffffffffffffffffffffffffffffffffff168152602001908152602001600020549050919050565b610d4f61170f565b73ffffffffffffffffffffffffffffffffffffffff16610d6d610dcf565b73ffffffffffffffffffffffffffffffffffffffff1614610dc3576040517f08c379a0000000000000000000000000000000000000000000000000000000008152600401610dba90613af5565b60405180910390fd5b610dcd6000611b0a565b565b60008060009054906101000a900473ffffffffffffffffffffffffffffffffffffffff16905090565b606060028054610e0790613e6a565b80601f0160208091040260200160405190810160405280929190818152602001828054610e3390613e6a565b8015610e805780601f10610e5557610100808354040283529160200191610e80565b820191906000526020600020905b815481529060010190602001808311610e6357829003601f168201915b5050505050905090565b610e9261170f565b73ffffffffffffffffffffffffffffffffffffffff168273ffffffffffffffffffffffffffffffffffffffff161415610f00576040517f08c379a0000000000000000000000000000000000000000000000000000000008152600401610ef7906139d5565b60405180910390fd5b8060066000610f0d61170f565b73ffffffffffffffffffffffffffffffffffffffff1673ffffffffffffffffffffffffffffffffffffffff16815260200190815260200160002060008473ffffffffffffffffffffffffffffffffffffffff1673ffffffffffffffffffffffffffffffffffffffff16815260200190815260200160002060006101000a81548160ff0219169083151502179055508173ffffffffffffffffffffffffffffffffffffffff16610fba61170f565b73ffffffffffffffffffffffffffffffffffffffff167f17307eab39ab6107e8899845ad3d59bd9653f200f220920489ca2b5937696c3183604051610fff91906138b8565b60405180910390a35050565b61101c61101661170f565b836117d0565b61105b576040517f08c379a000000000000000000000000000000000000000000000000000000000815260040161105290613b75565b60405180910390fd5b61106784848484611bce565b50505050565b6060611078826116a3565b6110b7576040517f08c379a00000000000000000000000000000000000000000000000000000000081526004016110ae90613b35565b60405180910390fd5b60006110c1611c2a565b905060008151116110e1576040518060200160405280600081525061110c565b806110eb84611c41565b6040516020016110fc929190613816565b6040516020818303038152906040525b915050919050565b600061111f846116a3565b61115e576040517f08c379a0000000000000000000000000000000000000000000000000000000008152600401611155906138f5565b60405180910390fd5b60001515600d600086815260200190815260200160002060020160149054906101000a900460ff161515146111c8576040517f08c379a00000000000000000000000000000000000000000000000000000000081526004016111bf90613bb5565b60405180910390fd5b826040516020016111d991906137ff565b60405160208183030381529060405280519060200120600d6000868152602001908152602001600020600001604051602001611215919061383a565b6040516020818303038152906040528051906020012014801561129857508160405160200161124491906137ff565b60405160208183030381529060405280519060200120600d6000868152602001908152602001600020600101604051602001611280919061383a565b60405160208183030381529060405280519060200120145b6112d7576040517f08c379a00000000000000000000000000000000000000000000000000000000081526004016112ce90613995565b60405180910390fd5b611304600c60009054906101000a900473ffffffffffffffffffffffffffffffffffffffff163386610995565b33600d600086815260200190815260200160002060020160006101000a81548173ffffffffffffffffffffffffffffffffffffffff021916908373ffffffffffffffffffffffffffffffffffffffff1602179055506001600d600086815260200190815260200160002060020160146101000a81548160ff021916908315150217905550600d600085815260200190815260200160002060020160149054906101000a900460ff1690509392505050565b60003373ffffffffffffffffffffffffffffffffffffffff16600c60009054906101000a900473ffffffffffffffffffffffffffffffffffffffff1673ffffffffffffffffffffffffffffffffffffffff161461141157600080fd5b662386f26fc1000034101561145b576040517f08c379a000000000000000000000000000000000000000000000000000000000815260040161145290613a35565b60405180910390fd5b6000611467600b611dee565b90506114733382611dfc565b61147d600b611fca565b6114878184611fe0565b611492858583612054565b809150509392505050565b6000600660008473ffffffffffffffffffffffffffffffffffffffff1673ffffffffffffffffffffffffffffffffffffffff16815260200190815260200160002060008373ffffffffffffffffffffffffffffffffffffffff1673ffffffffffffffffffffffffffffffffffffffff16815260200190815260200160002060009054906101000a900460ff16905092915050565b61153961170f565b73ffffffffffffffffffffffffffffffffffffffff16611557610dcf565b73ffffffffffffffffffffffffffffffffffffffff16146115ad576040517f08c379a00000000000000000000000000000000000000000000000000000000081526004016115a490613af5565b60405180910390fd5b600073ffffffffffffffffffffffffffffffffffffffff168173ffffffffffffffffffffffffffffffffffffffff16141561161d576040517f08c379a000000000000000000000000000000000000000000000000000000000815260040161161490613955565b60405180910390fd5b61162681611b0a565b50565b60007f780e9d63000000000000000000000000000000000000000000000000000000007bffffffffffffffffffffffffffffffffffffffffffffffffffffffff1916827bffffffffffffffffffffffffffffffffffffffffffffffffffffffff1916148061169c575061169b82612151565b5b9050919050565b60008073ffffffffffffffffffffffffffffffffffffffff166003600084815260200190815260200160002060009054906101000a900473ffffffffffffffffffffffffffffffffffffffff1673ffffffffffffffffffffffffffffffffffffffff1614159050919050565b600033905090565b816005600083815260200190815260200160002060006101000a81548173ffffffffffffffffffffffffffffffffffffffff021916908373ffffffffffffffffffffffffffffffffffffffff160217905550808273ffffffffffffffffffffffffffffffffffffffff1661178a83610a4c565b73ffffffffffffffffffffffffffffffffffffffff167f8c5be1e5ebec7d5bd14f71427d1e84f3dd0314c0f7b2291e5b200ac8c7c3b92560405160405180910390a45050565b60006117db826116a3565b61181a576040517f08c379a0000000000000000000000000000000000000000000000000000000008152600401611811906139f5565b60405180910390fd5b600061182583610a4c565b90508073ffffffffffffffffffffffffffffffffffffffff168473ffffffffffffffffffffffffffffffffffffffff16148061189457508373ffffffffffffffffffffffffffffffffffffffff1661187c84610671565b73ffffffffffffffffffffffffffffffffffffffff16145b806118a557506118a4818561149d565b5b91505092915050565b8273ffffffffffffffffffffffffffffffffffffffff166118ce82610a4c565b73ffffffffffffffffffffffffffffffffffffffff1614611924576040517f08c379a000000000000000000000000000000000000000000000000000000000815260040161191b90613b15565b60405180910390fd5b600073ffffffffffffffffffffffffffffffffffffffff168273ffffffffffffffffffffffffffffffffffffffff161415611994576040517f08c379a000000000000000000000000000000000000000000000000000000000815260040161198b906139b5565b60405180910390fd5b61199f838383612233565b6119aa600082611717565b6001600460008573ffffffffffffffffffffffffffffffffffffffff1673ffffffffffffffffffffffffffffffffffffffff16815260200190815260200160002060008282546119fa9190613d80565b925050819055506001600460008473ffffffffffffffffffffffffffffffffffffffff1673ffffffffffffffffffffffffffffffffffffffff1681526020019081526020016000206000828254611a519190613cf9565b92505081905550816003600083815260200190815260200160002060006101000a81548173ffffffffffffffffffffffffffffffffffffffff021916908373ffffffffffffffffffffffffffffffffffffffff160217905550808273ffffffffffffffffffffffffffffffffffffffff168473ffffffffffffffffffffffffffffffffffffffff167fddf252ad1be2c89b69c2b068fc378daa952ba7f163c4a11628f55a4df523b3ef60405160405180910390a4505050565b60008060009054906101000a900473ffffffffffffffffffffffffffffffffffffffff169050816000806101000a81548173ffffffffffffffffffffffffffffffffffffffff021916908373ffffffffffffffffffffffffffffffffffffffff1602179055508173ffffffffffffffffffffffffffffffffffffffff168173ffffffffffffffffffffffffffffffffffffffff167f8be0079c531659141344cd1fd0a4f28419497f9722a3daafe3b4186f6b6457e060405160405180910390a35050565b611bd98484846118ae565b611be584848484612243565b611c24576040517f08c379a0000000000000000000000000000000000000000000000000000000008152600401611c1b90613935565b60405180910390fd5b50505050565b606060405180602001604052806000815250905090565b60606000821415611c89576040518060400160405280600181526020017f30000000000000000000000000000000000000000000000000000000000000008152509050611de9565b600082905060005b60008214611cbb578080611ca490613e9c565b915050600a82611cb49190613d4f565b9150611c91565b60008167ffffffffffffffff811115611cfd577f4e487b7100000000000000000000000000000000000000000000000000000000600052604160045260246000fd5b6040519080825280601f01601f191660200182016040528015611d2f5781602001600182028036833780820191505090505b5090505b60008514611de257600182611d489190613d80565b9150600a85611d579190613ee5565b6030611d639190613cf9565b60f81b818381518110611d9f577f4e487b7100000000000000000000000000000000000000000000000000000000600052603260045260246000fd5b60200101907effffffffffffffffffffffffffffffffffffffffffffffffffffffffffffff1916908160001a905350600a85611ddb9190613d4f565b9450611d33565b8093505050505b919050565b600081600001549050919050565b600073ffffffffffffffffffffffffffffffffffffffff168273ffffffffffffffffffffffffffffffffffffffff161415611e6c576040517f08c379a0000000000000000000000000000000000000000000000000000000008152600401611e6390613ab5565b60405180910390fd5b611e75816116a3565b15611eb5576040517f08c379a0000000000000000000000000000000000000000000000000000000008152600401611eac90613975565b60405180910390fd5b611ec160008383612233565b6001600460008473ffffffffffffffffffffffffffffffffffffffff1673ffffffffffffffffffffffffffffffffffffffff1681526020019081526020016000206000828254611f119190613cf9565b92505081905550816003600083815260200190815260200160002060006101000a81548173ffffffffffffffffffffffffffffffffffffffff021916908373ffffffffffffffffffffffffffffffffffffffff160217905550808273ffffffffffffffffffffffffffffffffffffffff16600073ffffffffffffffffffffffffffffffffffffffff167fddf252ad1be2c89b69c2b068fc378daa952ba7f163c4a11628f55a4df523b3ef60405160405180910390a45050565b6001816000016000828254019250508190555050565b611fe9826116a3565b612028576040517f08c379a000000000000000000000000000000000000000000000000000000000815260040161201f90613a95565b60405180910390fd5b80600e6000848152602001908152602001600020908051906020019061204f9291906128e8565b505050565b60006040518060800160405280858152602001848152602001600073ffffffffffffffffffffffffffffffffffffffff16815260200160001515815250905080600d600084815260200190815260200160002060008201518160000190805190602001906120c39291906128e8565b5060208201518160010190805190602001906120e09291906128e8565b5060408201518160020160006101000a81548173ffffffffffffffffffffffffffffffffffffffff021916908373ffffffffffffffffffffffffffffffffffffffff16021790555060608201518160020160146101000a81548160ff02191690831515021790555090505050505050565b60007f80ac58cd000000000000000000000000000000000000000000000000000000007bffffffffffffffffffffffffffffffffffffffffffffffffffffffff1916827bffffffffffffffffffffffffffffffffffffffffffffffffffffffff1916148061221c57507f5b5e139f000000000000000000000000000000000000000000000000000000007bffffffffffffffffffffffffffffffffffffffffffffffffffffffff1916827bffffffffffffffffffffffffffffffffffffffffffffffffffffffff1916145b8061222c575061222b826123da565b5b9050919050565b61223e838383612444565b505050565b60006122648473ffffffffffffffffffffffffffffffffffffffff16612558565b156123cd578373ffffffffffffffffffffffffffffffffffffffff1663150b7a0261228d61170f565b8786866040518563ffffffff1660e01b81526004016122af949392919061386c565b602060405180830381600087803b1580156122c957600080fd5b505af19250505080156122fa57506040513d601f19601f820116820180604052508101906122f79190612c94565b60015b61237d573d806000811461232a576040519150601f19603f3d011682016040523d82523d6000602084013e61232f565b606091505b50600081511415612375576040517f08c379a000000000000000000000000000000000000000000000000000000000815260040161236c90613935565b60405180910390fd5b805181602001fd5b63150b7a0260e01b7bffffffffffffffffffffffffffffffffffffffffffffffffffffffff1916817bffffffffffffffffffffffffffffffffffffffffffffffffffffffff1916149150506123d2565b600190505b949350505050565b60007f01ffc9a7000000000000000000000000000000000000000000000000000000007bffffffffffffffffffffffffffffffffffffffffffffffffffffffff1916827bffffffffffffffffffffffffffffffffffffffffffffffffffffffff1916149050919050565b61244f83838361256b565b600073ffffffffffffffffffffffffffffffffffffffff168373ffffffffffffffffffffffffffffffffffffffff1614156124925761248d81612570565b6124d1565b8173ffffffffffffffffffffffffffffffffffffffff168373ffffffffffffffffffffffffffffffffffffffff16146124d0576124cf83826125b9565b5b5b600073ffffffffffffffffffffffffffffffffffffffff168273ffffffffffffffffffffffffffffffffffffffff1614156125145761250f81612726565b612553565b8273ffffffffffffffffffffffffffffffffffffffff168273ffffffffffffffffffffffffffffffffffffffff1614612552576125518282612869565b5b5b505050565b600080823b905060008111915050919050565b505050565b600980549050600a600083815260200190815260200160002081905550600981908060018154018082558091505060019003906000526020600020016000909190919091505550565b600060016125c684610c8f565b6125d09190613d80565b90506000600860008481526020019081526020016000205490508181146126b5576000600760008673ffffffffffffffffffffffffffffffffffffffff1673ffffffffffffffffffffffffffffffffffffffff168152602001908152602001600020600084815260200190815260200160002054905080600760008773ffffffffffffffffffffffffffffffffffffffff1673ffffffffffffffffffffffffffffffffffffffff168152602001908152602001600020600084815260200190815260200160002081905550816008600083815260200190815260200160002081905550505b6008600084815260200190815260200160002060009055600760008573ffffffffffffffffffffffffffffffffffffffff1673ffffffffffffffffffffffffffffffffffffffff16815260200190815260200160002060008381526020019081526020016000206000905550505050565b6000600160098054905061273a9190613d80565b90506000600a6000848152602001908152602001600020549050600060098381548110612790577f4e487b7100000000000000000000000000000000000000000000000000000000600052603260045260246000fd5b9060005260206000200154905080600983815481106127d8577f4e487b7100000000000000000000000000000000000000000000000000000000600052603260045260246000fd5b906000526020600020018190555081600a600083815260200190815260200160002081905550600a600085815260200190815260200160002060009055600980548061284d577f4e487b7100000000000000000000000000000000000000000000000000000000600052603160045260246000fd5b6001900381819060005260206000200160009055905550505050565b600061287483610c8f565b905081600760008573ffffffffffffffffffffffffffffffffffffffff1673ffffffffffffffffffffffffffffffffffffffff168152602001908152602001600020600083815260200190815260200160002081905550806008600084815260200190815260200160002081905550505050565b8280546128f490613e6a565b90600052602060002090601f016020900481019282612916576000855561295d565b82601f1061292f57805160ff191683800117855561295d565b8280016001018555821561295d579182015b8281111561295c578251825591602001919060010190612941565b5b50905061296a919061296e565b5090565b5b8082111561298757600081600090555060010161296f565b5090565b600061299e61299984613c41565b613c10565b9050828152602081018484840111156129b657600080fd5b6129c1848285613e28565b509392505050565b60006129dc6129d784613c71565b613c10565b9050828152602081018484840111156129f457600080fd5b6129ff848285613e28565b509392505050565b600081359050612a1681613fe3565b92915050565b600081359050612a2b81613ffa565b92915050565b600081359050612a4081614011565b92915050565b600081519050612a5581614011565b92915050565b600082601f830112612a6c57600080fd5b8135612a7c84826020860161298b565b91505092915050565b600082601f830112612a9657600080fd5b8135612aa68482602086016129c9565b91505092915050565b600081359050612abe81614028565b92915050565b600060208284031215612ad657600080fd5b6000612ae484828501612a07565b91505092915050565b60008060408385031215612b0057600080fd5b6000612b0e85828601612a07565b9250506020612b1f85828601612a07565b9150509250929050565b600080600060608486031215612b3e57600080fd5b6000612b4c86828701612a07565b9350506020612b5d86828701612a07565b9250506040612b6e86828701612aaf565b9150509250925092565b60008060008060808587031215612b8e57600080fd5b6000612b9c87828801612a07565b9450506020612bad87828801612a07565b9350506040612bbe87828801612aaf565b925050606085013567ffffffffffffffff811115612bdb57600080fd5b612be787828801612a5b565b91505092959194509250565b60008060408385031215612c0657600080fd5b6000612c1485828601612a07565b9250506020612c2585828601612a1c565b9150509250929050565b60008060408385031215612c4257600080fd5b6000612c5085828601612a07565b9250506020612c6185828601612aaf565b9150509250929050565b600060208284031215612c7d57600080fd5b6000612c8b84828501612a31565b91505092915050565b600060208284031215612ca657600080fd5b6000612cb484828501612a46565b91505092915050565b600080600060608486031215612cd257600080fd5b600084013567ffffffffffffffff811115612cec57600080fd5b612cf886828701612a85565b935050602084013567ffffffffffffffff811115612d1557600080fd5b612d2186828701612a85565b925050604084013567ffffffffffffffff811115612d3e57600080fd5b612d4a86828701612a85565b9150509250925092565b600060208284031215612d6657600080fd5b6000612d7484828501612aaf565b91505092915050565b60008060408385031215612d9057600080fd5b6000612d9e85828601612aaf565b925050602083013567ffffffffffffffff811115612dbb57600080fd5b612dc785828601612a85565b9150509250929050565b600080600060608486031215612de657600080fd5b6000612df486828701612aaf565b935050602084013567ffffffffffffffff811115612e1157600080fd5b612e1d86828701612a85565b925050604084013567ffffffffffffffff811115612e3a57600080fd5b612e4686828701612a85565b9150509250925092565b612e5981613db4565b82525050565b612e6881613dc6565b82525050565b6000612e7982613cb6565b612e838185613ccc565b9350612e93818560208601613e37565b612e9c81613fd2565b840191505092915050565b6000612eb282613cc1565b612ebc8185613cdd565b9350612ecc818560208601613e37565b612ed581613fd2565b840191505092915050565b6000612eeb82613cc1565b612ef58185613cee565b9350612f05818560208601613e37565b80840191505092915050565b60008154612f1e81613e6a565b612f288186613cee565b94506001821660008114612f435760018114612f5457612f87565b60ff19831686528186019350612f87565b612f5d85613ca1565b60005b83811015612f7f57815481890152600182019150602081019050612f60565b838801955050505b50505092915050565b6000612f9d601883613cdd565b91507f5468697320546f6b656e6964206e6f74206578697374732e00000000000000006000830152602082019050919050565b6000612fdd602b83613cdd565b91507f455243373231456e756d657261626c653a206f776e657220696e646578206f7560008301527f74206f6620626f756e64730000000000000000000000000000000000000000006020830152604082019050919050565b6000613043603283613cdd565b91507f4552433732313a207472616e7366657220746f206e6f6e20455243373231526560008301527f63656976657220696d706c656d656e74657200000000000000000000000000006020830152604082019050919050565b60006130a9602683613cdd565b91507f4f776e61626c653a206e6577206f776e657220697320746865207a65726f206160008301527f64647265737300000000000000000000000000000000000000000000000000006020830152604082019050919050565b600061310f601c83613cdd565b91507f4552433732313a20746f6b656e20616c7265616479206d696e746564000000006000830152602082019050919050565b600061314f603383613cdd565b91507f5468697320636c61696d6572206973206e6f7420617574686f72697a6520746f60008301527f20636c61696d2063657274696669636174652e000000000000000000000000006020830152604082019050919050565b60006131b5602483613cdd565b91507f4552433732313a207472616e7366657220746f20746865207a65726f2061646460008301527f72657373000000000000000000000000000000000000000000000000000000006020830152604082019050919050565b600061321b601983613cdd565b91507f4552433732313a20617070726f766520746f2063616c6c6572000000000000006000830152602082019050919050565b600061325b602c83613cdd565b91507f4552433732313a206f70657261746f7220717565727920666f72206e6f6e657860008301527f697374656e7420746f6b656e00000000000000000000000000000000000000006020830152604082019050919050565b60006132c1603883613cdd565b91507f4552433732313a20617070726f76652063616c6c6572206973206e6f74206f7760008301527f6e6572206e6f7220617070726f76656420666f7220616c6c00000000000000006020830152604082019050919050565b6000613327601f83613cdd565b91507f52657175697265206d696e696d756d206d696e74696e6720616d6f756e742e006000830152602082019050919050565b6000613367602a83613cdd565b91507f4552433732313a2062616c616e636520717565727920666f7220746865207a6560008301527f726f2061646472657373000000000000000000000000000000000000000000006020830152604082019050919050565b60006133cd602983613cdd565b91507f4552433732313a206f776e657220717565727920666f72206e6f6e657869737460008301527f656e7420746f6b656e00000000000000000000000000000000000000000000006020830152604082019050919050565b6000613433602e83613cdd565b91507f45524337323155524953746f726167653a2055524920736574206f66206e6f6e60008301527f6578697374656e7420746f6b656e0000000000000000000000000000000000006020830152604082019050919050565b6000613499602083613cdd565b91507f4552433732313a206d696e7420746f20746865207a65726f20616464726573736000830152602082019050919050565b60006134d9602c83613cdd565b91507f4552433732313a20617070726f76656420717565727920666f72206e6f6e657860008301527f697374656e7420746f6b656e00000000000000000000000000000000000000006020830152604082019050919050565b600061353f602083613cdd565b91507f4f776e61626c653a2063616c6c6572206973206e6f7420746865206f776e65726000830152602082019050919050565b600061357f602983613cdd565b91507f4552433732313a207472616e73666572206f6620746f6b656e2074686174206960008301527f73206e6f74206f776e00000000000000000000000000000000000000000000006020830152604082019050919050565b60006135e5602f83613cdd565b91507f4552433732314d657461646174613a2055524920717565727920666f72206e6f60008301527f6e6578697374656e7420746f6b656e00000000000000000000000000000000006020830152604082019050919050565b600061364b602183613cdd565b91507f4552433732313a20617070726f76616c20746f2063757272656e74206f776e6560008301527f72000000000000000000000000000000000000000000000000000000000000006020830152604082019050919050565b60006136b1603183613cdd565b91507f4552433732313a207472616e736665722063616c6c6572206973206e6f74206f60008301527f776e6572206e6f7220617070726f7665640000000000000000000000000000006020830152604082019050919050565b6000613717602c83613cdd565b91507f455243373231456e756d657261626c653a20676c6f62616c20696e646578206f60008301527f7574206f6620626f756e647300000000000000000000000000000000000000006020830152604082019050919050565b600061377d602083613cdd565b91507f5468697320636572746966696361746520616c7265647920636c61696d65642e6000830152602082019050919050565b60006137bd601983613cdd565b91507f456e74657265642070696e206973206e6f742076616c69642e000000000000006000830152602082019050919050565b6137f981613e1e565b82525050565b600061380b8284612ee0565b915081905092915050565b60006138228285612ee0565b915061382e8284612ee0565b91508190509392505050565b60006138468284612f11565b915081905092915050565b60006020820190506138666000830184612e50565b92915050565b60006080820190506138816000830187612e50565b61388e6020830186612e50565b61389b60408301856137f0565b81810360608301526138ad8184612e6e565b905095945050505050565b60006020820190506138cd6000830184612e5f565b92915050565b600060208201905081810360008301526138ed8184612ea7565b905092915050565b6000602082019050818103600083015261390e81612f90565b9050919050565b6000602082019050818103600083015261392e81612fd0565b9050919050565b6000602082019050818103600083015261394e81613036565b9050919050565b6000602082019050818103600083015261396e8161309c565b9050919050565b6000602082019050818103600083015261398e81613102565b9050919050565b600060208201905081810360008301526139ae81613142565b9050919050565b600060208201905081810360008301526139ce816131a8565b9050919050565b600060208201905081810360008301526139ee8161320e565b9050919050565b60006020820190508181036000830152613a0e8161324e565b9050919050565b60006020820190508181036000830152613a2e816132b4565b9050919050565b60006020820190508181036000830152613a4e8161331a565b9050919050565b60006020820190508181036000830152613a6e8161335a565b9050919050565b60006020820190508181036000830152613a8e816133c0565b9050919050565b60006020820190508181036000830152613aae81613426565b9050919050565b60006020820190508181036000830152613ace8161348c565b9050919050565b60006020820190508181036000830152613aee816134cc565b9050919050565b60006020820190508181036000830152613b0e81613532565b9050919050565b60006020820190508181036000830152613b2e81613572565b9050919050565b60006020820190508181036000830152613b4e816135d8565b9050919050565b60006020820190508181036000830152613b6e8161363e565b9050919050565b60006020820190508181036000830152613b8e816136a4565b9050919050565b60006020820190508181036000830152613bae8161370a565b9050919050565b60006020820190508181036000830152613bce81613770565b9050919050565b60006020820190508181036000830152613bee816137b0565b9050919050565b6000602082019050613c0a60008301846137f0565b92915050565b6000604051905081810181811067ffffffffffffffff82111715613c3757613c36613fa3565b5b8060405250919050565b600067ffffffffffffffff821115613c5c57613c5b613fa3565b5b601f19601f8301169050602081019050919050565b600067ffffffffffffffff821115613c8c57613c8b613fa3565b5b601f19601f8301169050602081019050919050565b60008190508160005260206000209050919050565b600081519050919050565b600081519050919050565b600082825260208201905092915050565b600082825260208201905092915050565b600081905092915050565b6000613d0482613e1e565b9150613d0f83613e1e565b9250827fffffffffffffffffffffffffffffffffffffffffffffffffffffffffffffffff03821115613d4457613d43613f16565b5b828201905092915050565b6000613d5a82613e1e565b9150613d6583613e1e565b925082613d7557613d74613f45565b5b828204905092915050565b6000613d8b82613e1e565b9150613d9683613e1e565b925082821015613da957613da8613f16565b5b828203905092915050565b6000613dbf82613dfe565b9050919050565b60008115159050919050565b60007fffffffff0000000000000000000000000000000000000000000000000000000082169050919050565b600073ffffffffffffffffffffffffffffffffffffffff82169050919050565b6000819050919050565b82818337600083830152505050565b60005b83811015613e55578082015181840152602081019050613e3a565b83811115613e64576000848401525b50505050565b60006002820490506001821680613e8257607f821691505b60208210811415613e9657613e95613f74565b5b50919050565b6000613ea782613e1e565b91507fffffffffffffffffffffffffffffffffffffffffffffffffffffffffffffffff821415613eda57613ed9613f16565b5b600182019050919050565b6000613ef082613e1e565b9150613efb83613e1e565b925082613f0b57613f0a613f45565b5b828206905092915050565b7f4e487b7100000000000000000000000000000000000000000000000000000000600052601160045260246000fd5b7f4e487b7100000000000000000000000000000000000000000000000000000000600052601260045260246000fd5b7f4e487b7100000000000000000000000000000000000000000000000000000000600052602260045260246000fd5b7f4e487b7100000000000000000000000000000000000000000000000000000000600052604160045260246000fd5b6000601f19601f8301169050919050565b613fec81613db4565b8114613ff757600080fd5b50565b61400381613dc6565b811461400e57600080fd5b50565b61401a81613dd2565b811461402557600080fd5b50565b61403181613e1e565b811461403c57600080fd5b5056fea264697066735822122073a406093ea1ae4ed8fcdf03b0e4ecb0df3b02f54e2122108d88ea5d655aeb8f64736f6c63430008000033a2646970667358221220e334a37cf269919047faebf1a876ee8e5320d5ee29a1fa22848509bad416e12a64736f6c63430008000033",
  "immutableReferences": {},
  "source": "pragma solidity >=0.4.22 <0.9.0;\r\n\r\nimport \"@openzeppelin/contracts/access/Ownable.sol\";\r\nimport \"@openzeppelin/contracts/token/ERC721/ERC721.sol\";\r\nimport \"@openzeppelin/contracts/token/ERC721/extensions/ERC721Enumerable.sol\";\r\nimport \"@openzeppelin/contracts/utils/Counters.sol\";\r\n\r\ncontract OnescanVerify is Ownable {\r\n    address private admin;\r\n    struct IssuerRequest {\r\n        address issuerAddress;\r\n        string issuerCID;\r\n        bool approval; \r\n    }\r\n    struct IssuerContract {\r\n        address contractaddress;\r\n        string contractName;\r\n        uint256 requestIndex;\r\n        string contractType;\r\n    }\r\n    struct IssuerContractArray {\r\n        IssuerContract[] contractArray;\r\n    }\r\n    IssuerRequest[] public issuerRequest;\r\n    uint256 public approvalCounts;\r\n    mapping(address=>IssuerContractArray) issuerListOfContract;\r\n    mapping(address=>bool) public issuerAddress;\r\n    \r\n    constructor() {\r\n        admin = msg.sender;\r\n    }\r\n\r\n    function applyForRequest(string memory _issuerCID) public {\r\n        require(!issuerAddress[msg.sender],'Alaredy register as Issuer.');\r\n        issuerRequest.push(IssuerRequest({\r\n            issuerAddress:msg.sender,\r\n            issuerCID:_issuerCID,\r\n            approval:false\r\n        }));\r\n        issuerAddress[msg.sender] = true;\r\n    }\r\n\r\n    function approveRequest(uint256 _index) public {\r\n        require(issuerRequest[_index].approval == false, 'Issuer request already approved.');\r\n        issuerRequest[_index].approval = true;\r\n        approvalCounts = approvalCounts + 1;\r\n    }\r\n\r\n    function issuerRequestCount() public view returns (uint256 result)  {\r\n        uint256 length = issuerRequest.length;\r\n        return length;\r\n    }\r\n\r\n    function getOwnerContract(address _issuerAddress) public view returns(IssuerContract[] memory) {\r\n        return(issuerListOfContract[_issuerAddress].contractArray);\r\n    }\r\n\r\n    function createNewContract(uint256 _index,string memory _contractType,string memory _contractName) public {\r\n        require(issuerRequest[_index].issuerAddress == msg.sender && issuerRequest[_index].approval == true,'Issuer Request is not approved.');\r\n        address newContract = address(new physicalCertificate(msg.sender));\r\n        \r\n        issuerListOfContract[msg.sender].contractArray.push(IssuerContract({\r\n            contractaddress:newContract,\r\n            contractName:_contractName,\r\n            requestIndex: _index,\r\n            contractType: _contractType\r\n        }));\r\n    }\r\n}\r\n\r\ncontract physicalCertificate is Ownable,ERC721,ERC721Enumerable {\r\n    using Counters for Counters.Counter;\r\n    Counters.Counter private _tokenIds;\r\n\r\n    struct Claimer {\r\n        string secretPassword;\r\n        string secretPin;\r\n        address claimerAddress;\r\n        bool claimStatus;\r\n    }\r\n    address admin;\r\n    mapping(uint256=>Claimer) tokenIdToClaimer;\r\n    mapping(uint256 => string) private _tokenURIs;\r\n   \r\n\r\n    constructor(address issuerAddress) ERC721('Physical Certificate NFT','PCN'){\r\n        admin = issuerAddress;\r\n    }\r\n    modifier restricted() {\r\n        require(admin == msg.sender);\r\n        _;\r\n    }\r\n\r\n    function mint(string memory _secretPassword,string memory _secretPin,string memory _tokenURI) public payable restricted returns(uint256){\r\n        require(msg.value >= 0.01 ether, 'Require minimum minting amount.');\r\n        uint256 _newTokenId = _tokenIds.current();\r\n        _mint(msg.sender,_newTokenId);\r\n        _tokenIds.increment();\r\n        _setTokenURI(_newTokenId, _tokenURI);\r\n        setClaimerDetail(_secretPassword,_secretPin,_newTokenId);\r\n        \r\n        return _newTokenId;\r\n    }\r\n\r\n    function _setTokenURI(uint256 tokenId, string memory _tokenURI) internal virtual {\r\n        require(_exists(tokenId), \"ERC721URIStorage: URI set of nonexistent token\");\r\n        _tokenURIs[tokenId] = _tokenURI;\r\n    }\r\n\r\n    function setClaimerDetail(string memory _secretPassword,string memory _secretPin,uint256 _tokenId) internal {\r\n        Claimer memory newClaimerDetails = Claimer({\r\n            secretPassword:_secretPassword,\r\n            secretPin:_secretPin,\r\n            claimerAddress: address(0x00),\r\n            claimStatus:false\r\n        });\r\n        tokenIdToClaimer[_tokenId] = newClaimerDetails;\r\n\r\n    }\r\n\r\n    function claimCertificate(uint256 _tokenId,string memory _secretPassword,string memory _secretPin) public returns (bool result){\r\n        require(_exists(_tokenId), 'This Tokenid not exists.');\r\n        require(tokenIdToClaimer[_tokenId].claimStatus == false, 'This certificate alredy claimed.');\r\n        require((keccak256(abi.encodePacked(tokenIdToClaimer[_tokenId].secretPassword)) == keccak256(abi.encodePacked(_secretPassword)) && keccak256(abi.encodePacked(tokenIdToClaimer[_tokenId].secretPin)) == keccak256(abi.encodePacked(_secretPin))), 'This claimer is not authorize to claim certificate.');\r\n        safeTransferFrom(admin,msg.sender,_tokenId);\r\n        tokenIdToClaimer[_tokenId].claimerAddress = msg.sender;\r\n        tokenIdToClaimer[_tokenId].claimStatus = true;\r\n        return tokenIdToClaimer[_tokenId].claimStatus;\r\n    }\r\n\r\n    function checkAuthenticity(uint256 _tokenId,string memory _secretPin) public view returns (string memory result) {\r\n        require(_exists(_tokenId), 'This Tokenid not exists.');\r\n        require(keccak256(abi.encodePacked(tokenIdToClaimer[_tokenId].secretPin)) == keccak256(abi.encodePacked(_secretPin)), 'Entered pin is not valid.');\r\n        return _tokenURIs[_tokenId];\r\n    }\r\n\r\n    function getClaimStatus(uint256 _tokenId) public view returns (bool result){\r\n        require(_exists(_tokenId), 'This Tokenid not exists.');\r\n        return (tokenIdToClaimer[_tokenId].claimStatus);\r\n    }\r\n    // function vrf() public view returns (bytes32 result) {\r\n    //     uint[1] memory bn;\r\n    //     bn[0] = block.number;\r\n    //     assembly {\r\n    //     let memPtr := mload(0x40)\r\n    //     if iszero(staticcall(not(0), 0xff, bn, 0x20, memPtr, 0x20)) {\r\n    //         invalid()\r\n    //     }\r\n    //     result := mload(memPtr)\r\n    //     }\r\n    // }\r\n\r\n    function supportsInterface(bytes4 interfaceId) public view virtual override(ERC721, ERC721Enumerable) returns (bool) {\r\n        return super.supportsInterface(interfaceId);\r\n    }\r\n\r\n    function _beforeTokenTransfer(\r\n        address from,\r\n        address to,\r\n        uint256 tokenId\r\n    ) internal virtual override(ERC721, ERC721Enumerable) {\r\n        super._beforeTokenTransfer(from, to, tokenId);\r\n    }\r\n\r\n}",
  "sourcePath": "F:\\Blockchain\\OneScan-Verify\\Backend\\contracts\\OnescanVerify.sol",
  "compiler": {
    "name": "solc",
    "version": "0.8.0+commit.c7dfd78e.Emscripten.clang"
  },
  "schemaVersion": "3.4.3",
  "updatedAt": "2021-09-28T15:33:34.066Z",
  "networkType": "ethereum",
  "devdoc": {
    "kind": "dev",
    "methods": {
      "owner()": {
        "details": "Returns the address of the current owner."
      },
      "renounceOwnership()": {
        "details": "Leaves the contract without owner. It will not be possible to call `onlyOwner` functions anymore. Can only be called by the current owner. NOTE: Renouncing ownership will leave the contract without an owner, thereby removing any functionality that is only available to the owner."
      },
      "transferOwnership(address)": {
        "details": "Transfers ownership of the contract to a new account (`newOwner`). Can only be called by the current owner."
      }
    },
    "version": 1
  },
  "userdoc": {
    "kind": "user",
    "methods": {},
    "version": 1
  }
}