{
  "contractName": "OnescanVerify",
  "abi": [
    {
      "inputs": [],
      "stateMutability": "nonpayable",
      "type": "constructor"
    },
    {
      "anonymous": false,
      "inputs": [
        {
          "indexed": true,
          "internalType": "address",
          "name": "previousOwner",
          "type": "address"
        },
        {
          "indexed": true,
          "internalType": "address",
          "name": "newOwner",
          "type": "address"
        }
      ],
      "name": "OwnershipTransferred",
      "type": "event"
    },
    {
      "inputs": [],
      "name": "approvalCounts",
      "outputs": [
        {
          "internalType": "uint256",
          "name": "",
          "type": "uint256"
        }
      ],
      "stateMutability": "view",
      "type": "function",
      "constant": true
    },
    {
      "inputs": [
        {
          "internalType": "uint256",
          "name": "",
          "type": "uint256"
        }
      ],
      "name": "issuerRequest",
      "outputs": [
        {
          "internalType": "address",
          "name": "issuerAddress",
          "type": "address"
        },
        {
          "internalType": "string",
          "name": "issuerCID",
          "type": "string"
        },
        {
          "internalType": "string",
          "name": "contractType",
          "type": "string"
        },
        {
          "internalType": "bool",
          "name": "approval",
          "type": "bool"
        }
      ],
      "stateMutability": "view",
      "type": "function",
      "constant": true
    },
    {
      "inputs": [],
      "name": "owner",
      "outputs": [
        {
          "internalType": "address",
          "name": "",
          "type": "address"
        }
      ],
      "stateMutability": "view",
      "type": "function",
      "constant": true
    },
    {
      "inputs": [],
      "name": "renounceOwnership",
      "outputs": [],
      "stateMutability": "nonpayable",
      "type": "function"
    },
    {
      "inputs": [
        {
          "internalType": "address",
          "name": "newOwner",
          "type": "address"
        }
      ],
      "name": "transferOwnership",
      "outputs": [],
      "stateMutability": "nonpayable",
      "type": "function"
    },
    {
      "inputs": [
        {
          "internalType": "string",
          "name": "_issuerCID",
          "type": "string"
        },
        {
          "internalType": "string",
          "name": "_contractType",
          "type": "string"
        }
      ],
      "name": "applyForRequest",
      "outputs": [],
      "stateMutability": "nonpayable",
      "type": "function"
    },
    {
      "inputs": [
        {
          "internalType": "uint256",
          "name": "_index",
          "type": "uint256"
        }
      ],
      "name": "approveRequest",
      "outputs": [],
      "stateMutability": "nonpayable",
      "type": "function"
    },
    {
      "inputs": [
        {
          "internalType": "address",
          "name": "_issuerAddress",
          "type": "address"
        }
      ],
      "name": "getOwnerContract",
      "outputs": [
        {
          "internalType": "address",
          "name": "",
          "type": "address"
        },
        {
          "components": [
            {
              "internalType": "address",
              "name": "contractaddress",
              "type": "address"
            },
            {
              "internalType": "string",
              "name": "contractCID",
              "type": "string"
            },
            {
              "internalType": "uint256",
              "name": "requestIndex",
              "type": "uint256"
            }
          ],
          "internalType": "struct OnescanVerify.IssuerContract[]",
          "name": "",
          "type": "tuple[]"
        }
      ],
      "stateMutability": "view",
      "type": "function",
      "constant": true
    },
    {
      "inputs": [
        {
          "internalType": "uint256",
          "name": "_index",
          "type": "uint256"
        }
      ],
      "name": "createNewContract",
      "outputs": [],
      "stateMutability": "nonpayable",
      "type": "function"
    }
  ],
  "bytecode": "0x608060405234801561001057600080fd5b5061003f61002b610085640100000000026401000000009004565b61008d640100000000026401000000009004565b33600160006101000a81548173ffffffffffffffffffffffffffffffffffffffff021916908373ffffffffffffffffffffffffffffffffffffffff160217905550610151565b600033905090565b60008060009054906101000a900473ffffffffffffffffffffffffffffffffffffffff169050816000806101000a81548173ffffffffffffffffffffffffffffffffffffffff021916908373ffffffffffffffffffffffffffffffffffffffff1602179055508173ffffffffffffffffffffffffffffffffffffffff168173ffffffffffffffffffffffffffffffffffffffff167f8be0079c531659141344cd1fd0a4f28419497f9722a3daafe3b4186f6b6457e060405160405180910390a35050565b615d6c80620001616000396000f3fe60806040523480156200001157600080fd5b5060043610620000bd576000357c010000000000000000000000000000000000000000000000000000000090048063a21d9b23116200008c578063a21d9b23146200014b578063ca4f20ce146200016b578063d7d1bbdb14620001a2578063e0e2625b14620001c2578063f2fde38b14620001e257620000bd565b806302fb063214620000c25780635e82c51414620000e4578063715018a6146200011d5780638da5cb5b1462000129575b600080fd5b620000cc62000202565b604051620000db91906200142e565b60405180910390f35b620001026004803603810190620000fc919062000fdc565b62000208565b6040516200011494939291906200134b565b60405180910390f35b6200012762000396565b005b6200013362000427565b604051620001429190620012fa565b60405180910390f35b62000169600480360381019062000163919062000f69565b62000450565b005b62000189600480360381019062000183919062000f3d565b62000560565b6040516200019992919062001317565b60405180910390f35b620001c06004803603810190620001ba919062000fdc565b62000705565b005b620001e06004803603810190620001da919062000fdc565b620008aa565b005b620002006004803603810190620001fa919062000f3d565b62000c0f565b005b60035481565b600281815481106200021957600080fd5b90600052602060002090600402016000915090508060000160009054906101000a900473ffffffffffffffffffffffffffffffffffffffff1690806001018054620002649062001604565b80601f0160208091040260200160405190810160405280929190818152602001828054620002929062001604565b8015620002e35780601f10620002b757610100808354040283529160200191620002e3565b820191906000526020600020905b815481529060010190602001808311620002c557829003601f168201915b505050505090806002018054620002fa9062001604565b80601f0160208091040260200160405190810160405280929190818152602001828054620003289062001604565b8015620003795780601f106200034d5761010080835404028352916020019162000379565b820191906000526020600020905b8154815290600101906020018083116200035b57829003601f168201915b5050505050908060030160009054906101000a900460ff16905084565b620003a062000d13565b73ffffffffffffffffffffffffffffffffffffffff16620003c062000427565b73ffffffffffffffffffffffffffffffffffffffff161462000419576040517f08c379a00000000000000000000000000000000000000000000000000000000081526004016200041090620013ea565b60405180910390fd5b62000425600062000d1b565b565b60008060009054906101000a900473ffffffffffffffffffffffffffffffffffffffff16905090565b600260405180608001604052803373ffffffffffffffffffffffffffffffffffffffff16815260200184815260200183815260200160001515815250908060018154018082558091505060019003906000526020600020906004020160009091909190915060008201518160000160006101000a81548173ffffffffffffffffffffffffffffffffffffffff021916908373ffffffffffffffffffffffffffffffffffffffff16021790555060208201518160010190805190602001906200051a92919062000ddf565b5060408201518160020190805190602001906200053992919062000ddf565b5060608201518160030160006101000a81548160ff02191690831515021790555050505050565b6000606082600460008573ffffffffffffffffffffffffffffffffffffffff1673ffffffffffffffffffffffffffffffffffffffff16815260200190815260200160002060000180805480602002602001604051908101604052809291908181526020016000905b82821015620006f657838290600052602060002090600302016040518060600160405290816000820160009054906101000a900473ffffffffffffffffffffffffffffffffffffffff1673ffffffffffffffffffffffffffffffffffffffff1673ffffffffffffffffffffffffffffffffffffffff168152602001600182018054620006549062001604565b80601f0160208091040260200160405190810160405280929190818152602001828054620006829062001604565b8015620006d35780601f10620006a757610100808354040283529160200191620006d3565b820191906000526020600020905b815481529060010190602001808311620006b557829003601f168201915b5050505050815260200160028201548152505081526020019060010190620005c8565b50505050905091509150915091565b6200070f62000d13565b73ffffffffffffffffffffffffffffffffffffffff166200072f62000427565b73ffffffffffffffffffffffffffffffffffffffff161462000788576040517f08c379a00000000000000000000000000000000000000000000000000000000081526004016200077f90620013ea565b60405180910390fd5b6000151560028281548110620007c7577f4e487b7100000000000000000000000000000000000000000000000000000000600052603260045260246000fd5b906000526020600020906004020160030160009054906101000a900460ff161515146200082b576040517f08c379a000000000000000000000000000000000000000000000000000000000815260040162000822906200140c565b60405180910390fd5b60016002828154811062000868577f4e487b7100000000000000000000000000000000000000000000000000000000600052603260045260246000fd5b906000526020600020906004020160030160006101000a81548160ff0219169083151502179055506001600354620008a1919062001518565b60038190555050565b3373ffffffffffffffffffffffffffffffffffffffff1660028281548110620008fc577f4e487b7100000000000000000000000000000000000000000000000000000000600052603260045260246000fd5b906000526020600020906004020160000160009054906101000a900473ffffffffffffffffffffffffffffffffffffffff1673ffffffffffffffffffffffffffffffffffffffff16148015620009af575060011515600282815481106200098c577f4e487b7100000000000000000000000000000000000000000000000000000000600052603260045260246000fd5b906000526020600020906004020160030160009054906101000a900460ff161515145b620009f1576040517f08c379a0000000000000000000000000000000000000000000000000000000008152600401620009e890620013c8565b60405180910390fd5b600060405162000a019062000e70565b604051809103906000f08015801562000a1e573d6000803e3d6000fd5b509050600460003373ffffffffffffffffffffffffffffffffffffffff1673ffffffffffffffffffffffffffffffffffffffff16815260200190815260200160002060000160405180606001604052808373ffffffffffffffffffffffffffffffffffffffff1681526020016002858154811062000ac5577f4e487b7100000000000000000000000000000000000000000000000000000000600052603260045260246000fd5b9060005260206000209060040201600101805462000ae39062001604565b80601f016020809104026020016040519081016040528092919081815260200182805462000b119062001604565b801562000b625780601f1062000b365761010080835404028352916020019162000b62565b820191906000526020600020905b81548152906001019060200180831162000b4457829003601f168201915b5050505050815260200184815250908060018154018082558091505060019003906000526020600020906003020160009091909190915060008201518160000160006101000a81548173ffffffffffffffffffffffffffffffffffffffff021916908373ffffffffffffffffffffffffffffffffffffffff160217905550602082015181600101908051906020019062000bfe92919062000ddf565b506040820151816002015550505050565b62000c1962000d13565b73ffffffffffffffffffffffffffffffffffffffff1662000c3962000427565b73ffffffffffffffffffffffffffffffffffffffff161462000c92576040517f08c379a000000000000000000000000000000000000000000000000000000000815260040162000c8990620013ea565b60405180910390fd5b600073ffffffffffffffffffffffffffffffffffffffff168173ffffffffffffffffffffffffffffffffffffffff16141562000d05576040517f08c379a000000000000000000000000000000000000000000000000000000000815260040162000cfc90620013a6565b60405180910390fd5b62000d108162000d1b565b50565b600033905090565b60008060009054906101000a900473ffffffffffffffffffffffffffffffffffffffff169050816000806101000a81548173ffffffffffffffffffffffffffffffffffffffff021916908373ffffffffffffffffffffffffffffffffffffffff1602179055508173ffffffffffffffffffffffffffffffffffffffff168173ffffffffffffffffffffffffffffffffffffffff167f8be0079c531659141344cd1fd0a4f28419497f9722a3daafe3b4186f6b6457e060405160405180910390a35050565b82805462000ded9062001604565b90600052602060002090601f01602090048101928262000e11576000855562000e5d565b82601f1062000e2c57805160ff191683800117855562000e5d565b8280016001018555821562000e5d579182015b8281111562000e5c57825182559160200191906001019062000e3f565b5b50905062000e6c919062000e7e565b5090565b61462a806200170d83390190565b5b8082111562000e9957600081600090555060010162000e7f565b5090565b600062000eb462000eae846200147f565b6200144b565b90508281526020810184848401111562000ecd57600080fd5b62000eda848285620015bf565b509392505050565b60008135905062000ef381620016d8565b92915050565b600082601f83011262000f0b57600080fd5b813562000f1d84826020860162000e9d565b91505092915050565b60008135905062000f3781620016f2565b92915050565b60006020828403121562000f5057600080fd5b600062000f608482850162000ee2565b91505092915050565b6000806040838503121562000f7d57600080fd5b600083013567ffffffffffffffff81111562000f9857600080fd5b62000fa68582860162000ef9565b925050602083013567ffffffffffffffff81111562000fc457600080fd5b62000fd28582860162000ef9565b9150509250929050565b60006020828403121562000fef57600080fd5b600062000fff8482850162000f26565b91505092915050565b600062001016838362001282565b905092915050565b620010298162001575565b82525050565b6200103a8162001575565b82525050565b60006200104d82620014c2565b620010598185620014e5565b9350836020820285016200106d85620014b2565b8060005b85811015620010af57848403895281516200108d858262001008565b94506200109a83620014d8565b925060208a0199505060018101905062001071565b50829750879550505050505092915050565b620010cc8162001589565b82525050565b6000620010df82620014cd565b620010eb8185620014f6565b9350620010fd818560208601620015ce565b6200110881620016c7565b840191505092915050565b60006200112082620014cd565b6200112c818562001507565b93506200113e818560208601620015ce565b6200114981620016c7565b840191505092915050565b60006200116360268362001507565b91507f4f776e61626c653a206e6577206f776e657220697320746865207a65726f206160008301527f64647265737300000000000000000000000000000000000000000000000000006020830152604082019050919050565b6000620011cb601f8362001507565b91507f4973737565722052657175657374206973206e6f7420617070726f7665642e006000830152602082019050919050565b60006200120d60208362001507565b91507f4f776e61626c653a2063616c6c6572206973206e6f7420746865206f776e65726000830152602082019050919050565b60006200124f60208362001507565b91507f497373756572207265717565737420616c726561647920617070726f7665642e6000830152602082019050919050565b60006060830160008301516200129c60008601826200101e565b5060208301518482036020860152620012b68282620010d2565b9150506040830151620012cd6040860182620012d8565b508091505092915050565b620012e381620015b5565b82525050565b620012f481620015b5565b82525050565b60006020820190506200131160008301846200102f565b92915050565b60006040820190506200132e60008301856200102f565b818103602083015262001342818462001040565b90509392505050565b60006080820190506200136260008301876200102f565b818103602083015262001376818662001113565b905081810360408301526200138c818562001113565b90506200139d6060830184620010c1565b95945050505050565b60006020820190508181036000830152620013c18162001154565b9050919050565b60006020820190508181036000830152620013e381620011bc565b9050919050565b600060208201905081810360008301526200140581620011fe565b9050919050565b60006020820190508181036000830152620014278162001240565b9050919050565b6000602082019050620014456000830184620012e9565b92915050565b6000604051905081810181811067ffffffffffffffff8211171562001475576200147462001698565b5b8060405250919050565b600067ffffffffffffffff8211156200149d576200149c62001698565b5b601f19601f8301169050602081019050919050565b6000819050602082019050919050565b600081519050919050565b600081519050919050565b6000602082019050919050565b600082825260208201905092915050565b600082825260208201905092915050565b600082825260208201905092915050565b60006200152582620015b5565b91506200153283620015b5565b9250827fffffffffffffffffffffffffffffffffffffffffffffffffffffffffffffffff038211156200156a57620015696200163a565b5b828201905092915050565b6000620015828262001595565b9050919050565b60008115159050919050565b600073ffffffffffffffffffffffffffffffffffffffff82169050919050565b6000819050919050565b82818337600083830152505050565b60005b83811015620015ee578082015181840152602081019050620015d1565b83811115620015fe576000848401525b50505050565b600060028204905060018216806200161d57607f821691505b6020821081141562001634576200163362001669565b5b50919050565b7f4e487b7100000000000000000000000000000000000000000000000000000000600052601160045260246000fd5b7f4e487b7100000000000000000000000000000000000000000000000000000000600052602260045260246000fd5b7f4e487b7100000000000000000000000000000000000000000000000000000000600052604160045260246000fd5b6000601f19601f8301169050919050565b620016e38162001575565b8114620016ef57600080fd5b50565b620016fd81620015b5565b81146200170957600080fd5b5056fe60806040523480156200001157600080fd5b506040518060400160405280601881526020017f506879736963616c204365727469666963617465204e465400000000000000008152506040518060400160405280600381526020017f50434e0000000000000000000000000000000000000000000000000000000000815250620000b06200009b620000ea640100000000026401000000009004565b620000f2640100000000026401000000009004565b8160019080519060200190620000c8929190620001b6565b508060029080519060200190620000e1929190620001b6565b505050620002cb565b600033905090565b60008060009054906101000a900473ffffffffffffffffffffffffffffffffffffffff169050816000806101000a81548173ffffffffffffffffffffffffffffffffffffffff021916908373ffffffffffffffffffffffffffffffffffffffff1602179055508173ffffffffffffffffffffffffffffffffffffffff168173ffffffffffffffffffffffffffffffffffffffff167f8be0079c531659141344cd1fd0a4f28419497f9722a3daafe3b4186f6b6457e060405160405180910390a35050565b828054620001c49062000266565b90600052602060002090601f016020900481019282620001e8576000855562000234565b82601f106200020357805160ff191683800117855562000234565b8280016001018555821562000234579182015b828111156200023357825182559160200191906001019062000216565b5b50905062000243919062000247565b5090565b5b808211156200026257600081600090555060010162000248565b5090565b600060028204905060018216806200027f57607f821691505b602082108114156200029657620002956200029c565b5b50919050565b7f4e487b7100000000000000000000000000000000000000000000000000000000600052602260045260246000fd5b61434f80620002db6000396000f3fe608060405260043610610168576000357c01000000000000000000000000000000000000000000000000000000009004806367a466d4116100d3578063b88d4fde1161008c578063b88d4fde146104c6578063c87b56dd146104ef578063d3cbaa151461052c578063e985e9c514610569578063ee6b50cd146105a6578063f2fde38b146105d157610168565b806367a466d4146103b657806370a08231146103f3578063715018a6146104305780638da5cb5b1461044757806395d89b4114610472578063a22cb4651461049d57610168565b806318160ddd1161012557806318160ddd1461028257806323b872dd146102ad5780632f745c59146102d657806342842e0e146103135780634f6ccce71461033c5780636352211e1461037957610168565b806301ffc9a71461016d57806302341c71146101aa57806306fdde03146101c6578063081812fc146101f1578063095ea7b31461022e5780630c94904314610257575b600080fd5b34801561017957600080fd5b50610194600480360381019061018f9190612ee5565b6105fa565b6040516101a19190613b6d565b60405180910390f35b6101c460048036038101906101bf9190612f37565b61060c565b005b3480156101d257600080fd5b506101db610711565b6040516101e89190613ba3565b60405180910390f35b3480156101fd57600080fd5b5061021860048036038101906102139190612ffa565b6107a3565b6040516102259190613b06565b60405180910390f35b34801561023a57600080fd5b5061025560048036038101906102509190612ea9565b610828565b005b34801561026357600080fd5b5061026c610940565b6040516102799190613b88565b60405180910390f35b34801561028e57600080fd5b506102976109ac565b6040516102a49190613ec5565b60405180910390f35b3480156102b957600080fd5b506102d460048036038101906102cf9190612da3565b6109b9565b005b3480156102e257600080fd5b506102fd60048036038101906102f89190612ea9565b610a19565b60405161030a9190613ec5565b60405180910390f35b34801561031f57600080fd5b5061033a60048036038101906103359190612da3565b610abe565b005b34801561034857600080fd5b50610363600480360381019061035e9190612ffa565b610ade565b6040516103709190613ec5565b60405180910390f35b34801561038557600080fd5b506103a0600480360381019061039b9190612ffa565b610b75565b6040516103ad9190613b06565b60405180910390f35b3480156103c257600080fd5b506103dd60048036038101906103d89190613023565b610c27565b6040516103ea9190613b6d565b60405180910390f35b3480156103ff57600080fd5b5061041a60048036038101906104159190612d3e565b610d24565b6040516104279190613ec5565b60405180910390f35b34801561043c57600080fd5b50610445610ddc565b005b34801561045357600080fd5b5061045c610e64565b6040516104699190613b06565b60405180910390f35b34801561047e57600080fd5b50610487610e8d565b6040516104949190613ba3565b60405180910390f35b3480156104a957600080fd5b506104c460048036038101906104bf9190612e6d565b610f1f565b005b3480156104d257600080fd5b506104ed60048036038101906104e89190612df2565b6110a0565b005b3480156104fb57600080fd5b5061051660048036038101906105119190612ffa565b611102565b6040516105239190613ba3565b60405180910390f35b34801561053857600080fd5b50610553600480360381019061054e9190613077565b6111a9565b6040516105609190613b6d565b60405180910390f35b34801561057557600080fd5b50610590600480360381019061058b9190612d67565b6115d9565b60405161059d9190613b6d565b60405180910390f35b3480156105b257600080fd5b506105bb61166d565b6040516105c89190613ec5565b60405180910390f35b3480156105dd57600080fd5b506105f860048036038101906105f39190612d3e565b61170e565b005b600061060582611806565b9050919050565b610614611880565b73ffffffffffffffffffffffffffffffffffffffff16610632610e64565b73ffffffffffffffffffffffffffffffffffffffff1614610688576040517f08c379a000000000000000000000000000000000000000000000000000000000815260040161067f90613dc5565b60405180910390fd5b662386f26fc100003410156106d2576040517f08c379a00000000000000000000000000000000000000000000000000000000081526004016106c990613d05565b60405180910390fd5b60006106de600b611888565b90506106ea3382611896565b6106f4600b611a64565b6106fe8183611a7a565b61070a85858584611aee565b5050505050565b60606001805461072090614144565b80601f016020809104026020016040519081016040528092919081815260200182805461074c90614144565b80156107995780601f1061076e57610100808354040283529160200191610799565b820191906000526020600020905b81548152906001019060200180831161077c57829003601f168201915b5050505050905090565b60006107ae82611c0f565b6107ed576040517f08c379a00000000000000000000000000000000000000000000000000000000081526004016107e490613da5565b60405180910390fd5b6005600083815260200190815260200160002060009054906101000a900473ffffffffffffffffffffffffffffffffffffffff169050919050565b600061083382610b75565b90508073ffffffffffffffffffffffffffffffffffffffff168373ffffffffffffffffffffffffffffffffffffffff1614156108a4576040517f08c379a000000000000000000000000000000000000000000000000000000000815260040161089b90613e25565b60405180910390fd5b8073ffffffffffffffffffffffffffffffffffffffff166108c3611880565b73ffffffffffffffffffffffffffffffffffffffff1614806108f257506108f1816108ec611880565b6115d9565b5b610931576040517f08c379a000000000000000000000000000000000000000000000000000000000815260040161092890613ce5565b60405180910390fd5b61093b8383611c7b565b505050565b600061094a612b40565b4381600060018110610985577f4e487b7100000000000000000000000000000000000000000000000000000000600052603260045260246000fd5b60200201818152505060405160208160208460ff600019fa6109a357fe5b80519250505090565b6000600980549050905090565b6109ca6109c4611880565b82611d34565b610a09576040517f08c379a0000000000000000000000000000000000000000000000000000000008152600401610a0090613e45565b60405180910390fd5b610a14838383611e12565b505050565b6000610a2483610d24565b8210610a65576040517f08c379a0000000000000000000000000000000000000000000000000000000008152600401610a5c90613be5565b60405180910390fd5b600760008473ffffffffffffffffffffffffffffffffffffffff1673ffffffffffffffffffffffffffffffffffffffff168152602001908152602001600020600083815260200190815260200160002054905092915050565b610ad9838383604051806020016040528060008152506110a0565b505050565b6000610ae86109ac565b8210610b29576040517f08c379a0000000000000000000000000000000000000000000000000000000008152600401610b2090613e65565b60405180910390fd5b60098281548110610b63577f4e487b7100000000000000000000000000000000000000000000000000000000600052603260045260246000fd5b90600052602060002001549050919050565b6000806003600084815260200190815260200160002060009054906101000a900473ffffffffffffffffffffffffffffffffffffffff169050600073ffffffffffffffffffffffffffffffffffffffff168173ffffffffffffffffffffffffffffffffffffffff161415610c1e576040517f08c379a0000000000000000000000000000000000000000000000000000000008152600401610c1590613d45565b60405180910390fd5b80915050919050565b6000610c3283611c0f565b610c71576040517f08c379a0000000000000000000000000000000000000000000000000000000008152600401610c6890613bc5565b60405180910390fd5b6000600c6000858152602001908152602001600020905082604051602001610c999190613ab4565b6040516020818303038152906040528051906020012081600201604051602001610cc39190613aef565b6040516020818303038152906040528051906020012014610d19576040517f08c379a0000000000000000000000000000000000000000000000000000000008152600401610d1090613ea5565b60405180910390fd5b600191505092915050565b60008073ffffffffffffffffffffffffffffffffffffffff168273ffffffffffffffffffffffffffffffffffffffff161415610d95576040517f08c379a0000000000000000000000000000000000000000000000000000000008152600401610d8c90613d25565b60405180910390fd5b600460008373ffffffffffffffffffffffffffffffffffffffff1673ffffffffffffffffffffffffffffffffffffffff168152602001908152602001600020549050919050565b610de4611880565b73ffffffffffffffffffffffffffffffffffffffff16610e02610e64565b73ffffffffffffffffffffffffffffffffffffffff1614610e58576040517f08c379a0000000000000000000000000000000000000000000000000000000008152600401610e4f90613dc5565b60405180910390fd5b610e62600061206e565b565b60008060009054906101000a900473ffffffffffffffffffffffffffffffffffffffff16905090565b606060028054610e9c90614144565b80601f0160208091040260200160405190810160405280929190818152602001828054610ec890614144565b8015610f155780601f10610eea57610100808354040283529160200191610f15565b820191906000526020600020905b815481529060010190602001808311610ef857829003601f168201915b5050505050905090565b610f27611880565b73ffffffffffffffffffffffffffffffffffffffff168273ffffffffffffffffffffffffffffffffffffffff161415610f95576040517f08c379a0000000000000000000000000000000000000000000000000000000008152600401610f8c90613ca5565b60405180910390fd5b8060066000610fa2611880565b73ffffffffffffffffffffffffffffffffffffffff1673ffffffffffffffffffffffffffffffffffffffff16815260200190815260200160002060008473ffffffffffffffffffffffffffffffffffffffff1673ffffffffffffffffffffffffffffffffffffffff16815260200190815260200160002060006101000a81548160ff0219169083151502179055508173ffffffffffffffffffffffffffffffffffffffff1661104f611880565b73ffffffffffffffffffffffffffffffffffffffff167f17307eab39ab6107e8899845ad3d59bd9653f200f220920489ca2b5937696c31836040516110949190613b6d565b60405180910390a35050565b6110b16110ab611880565b83611d34565b6110f0576040517f08c379a00000000000000000000000000000000000000000000000000000000081526004016110e790613e45565b60405180910390fd5b6110fc84848484612132565b50505050565b606061110d82611c0f565b61114c576040517f08c379a000000000000000000000000000000000000000000000000000000000815260040161114390613e05565b60405180910390fd5b600061115661218e565b9050600081511161117657604051806020016040528060008152506111a1565b80611180846121a5565b604051602001611191929190613acb565b6040516020818303038152906040525b915050919050565b60006111b484611c0f565b6111f3576040517f08c379a00000000000000000000000000000000000000000000000000000000081526004016111ea90613bc5565b60405180910390fd5b6000600c60008681526020019081526020016000206040518060a001604052908160008201805461122390614144565b80601f016020809104026020016040519081016040528092919081815260200182805461124f90614144565b801561129c5780601f106112715761010080835404028352916020019161129c565b820191906000526020600020905b81548152906001019060200180831161127f57829003601f168201915b505050505081526020016001820180546112b590614144565b80601f01602080910402602001604051908101604052809291908181526020018280546112e190614144565b801561132e5780601f106113035761010080835404028352916020019161132e565b820191906000526020600020905b81548152906001019060200180831161131157829003601f168201915b5050505050815260200160028201805461134790614144565b80601f016020809104026020016040519081016040528092919081815260200182805461137390614144565b80156113c05780601f10611395576101008083540402835291602001916113c0565b820191906000526020600020905b8154815290600101906020018083116113a357829003601f168201915b505050505081526020016003820160009054906101000a900473ffffffffffffffffffffffffffffffffffffffff1673ffffffffffffffffffffffffffffffffffffffff1673ffffffffffffffffffffffffffffffffffffffff1681526020016003820160149054906101000a900460ff16151515158152505090506000816080019015159081151581525061148b576040517f08c379a000000000000000000000000000000000000000000000000000000000815260040161148290613e85565b60405180910390fd5b8360405160200161149c9190613ab4565b6040516020818303038152906040528051906020012081602001516040516020016114c79190613ab4565b604051602081830303815290604052805190602001201480156115395750826040516020016114f69190613ab4565b6040516020818303038152906040528051906020012081604001516040516020016115219190613ab4565b60405160208183030381529060405280519060200120145b611578576040517f08c379a000000000000000000000000000000000000000000000000000000000815260040161156f90613c65565b60405180910390fd5b33816060019073ffffffffffffffffffffffffffffffffffffffff16908173ffffffffffffffffffffffffffffffffffffffff168152505060018160800190151590811515815250506115ca3361170e565b80608001519150509392505050565b6000600660008473ffffffffffffffffffffffffffffffffffffffff1673ffffffffffffffffffffffffffffffffffffffff16815260200190815260200160002060008373ffffffffffffffffffffffffffffffffffffffff1673ffffffffffffffffffffffffffffffffffffffff16815260200190815260200160002060009054906101000a900460ff16905092915050565b6000611677611880565b73ffffffffffffffffffffffffffffffffffffffff16611695610e64565b73ffffffffffffffffffffffffffffffffffffffff16146116eb576040517f08c379a00000000000000000000000000000000000000000000000000000000081526004016116e290613dc5565b60405180910390fd5b60006116f5610940565b60019004905060048161170891906141bf565b91505090565b611716611880565b73ffffffffffffffffffffffffffffffffffffffff16611734610e64565b73ffffffffffffffffffffffffffffffffffffffff161461178a576040517f08c379a000000000000000000000000000000000000000000000000000000000815260040161178190613dc5565b60405180910390fd5b600073ffffffffffffffffffffffffffffffffffffffff168173ffffffffffffffffffffffffffffffffffffffff1614156117fa576040517f08c379a00000000000000000000000000000000000000000000000000000000081526004016117f190613c25565b60405180910390fd5b6118038161206e565b50565b60007f780e9d63000000000000000000000000000000000000000000000000000000007bffffffffffffffffffffffffffffffffffffffffffffffffffffffff1916827bffffffffffffffffffffffffffffffffffffffffffffffffffffffff19161480611879575061187882612371565b5b9050919050565b600033905090565b600081600001549050919050565b600073ffffffffffffffffffffffffffffffffffffffff168273ffffffffffffffffffffffffffffffffffffffff161415611906576040517f08c379a00000000000000000000000000000000000000000000000000000000081526004016118fd90613d85565b60405180910390fd5b61190f81611c0f565b1561194f576040517f08c379a000000000000000000000000000000000000000000000000000000000815260040161194690613c45565b60405180910390fd5b61195b60008383612453565b6001600460008473ffffffffffffffffffffffffffffffffffffffff1673ffffffffffffffffffffffffffffffffffffffff16815260200190815260200160002060008282546119ab9190613fc9565b92505081905550816003600083815260200190815260200160002060006101000a81548173ffffffffffffffffffffffffffffffffffffffff021916908373ffffffffffffffffffffffffffffffffffffffff160217905550808273ffffffffffffffffffffffffffffffffffffffff16600073ffffffffffffffffffffffffffffffffffffffff167fddf252ad1be2c89b69c2b068fc378daa952ba7f163c4a11628f55a4df523b3ef60405160405180910390a45050565b6001816000016000828254019250508190555050565b611a8382611c0f565b611ac2576040517f08c379a0000000000000000000000000000000000000000000000000000000008152600401611ab990613d65565b60405180910390fd5b80600d60008481526020019081526020016000209080519060200190611ae9929190612b62565b505050565b60006040518060a00160405280868152602001858152602001848152602001600073ffffffffffffffffffffffffffffffffffffffff16815260200160001515815250905080600c60008481526020019081526020016000206000820151816000019080519060200190611b63929190612b62565b506020820151816001019080519060200190611b80929190612b62565b506040820151816002019080519060200190611b9d929190612b62565b5060608201518160030160006101000a81548173ffffffffffffffffffffffffffffffffffffffff021916908373ffffffffffffffffffffffffffffffffffffffff16021790555060808201518160030160146101000a81548160ff0219169083151502179055509050505050505050565b60008073ffffffffffffffffffffffffffffffffffffffff166003600084815260200190815260200160002060009054906101000a900473ffffffffffffffffffffffffffffffffffffffff1673ffffffffffffffffffffffffffffffffffffffff1614159050919050565b816005600083815260200190815260200160002060006101000a81548173ffffffffffffffffffffffffffffffffffffffff021916908373ffffffffffffffffffffffffffffffffffffffff160217905550808273ffffffffffffffffffffffffffffffffffffffff16611cee83610b75565b73ffffffffffffffffffffffffffffffffffffffff167f8c5be1e5ebec7d5bd14f71427d1e84f3dd0314c0f7b2291e5b200ac8c7c3b92560405160405180910390a45050565b6000611d3f82611c0f565b611d7e576040517f08c379a0000000000000000000000000000000000000000000000000000000008152600401611d7590613cc5565b60405180910390fd5b6000611d8983610b75565b90508073ffffffffffffffffffffffffffffffffffffffff168473ffffffffffffffffffffffffffffffffffffffff161480611df857508373ffffffffffffffffffffffffffffffffffffffff16611de0846107a3565b73ffffffffffffffffffffffffffffffffffffffff16145b80611e095750611e0881856115d9565b5b91505092915050565b8273ffffffffffffffffffffffffffffffffffffffff16611e3282610b75565b73ffffffffffffffffffffffffffffffffffffffff1614611e88576040517f08c379a0000000000000000000000000000000000000000000000000000000008152600401611e7f90613de5565b60405180910390fd5b600073ffffffffffffffffffffffffffffffffffffffff168273ffffffffffffffffffffffffffffffffffffffff161415611ef8576040517f08c379a0000000000000000000000000000000000000000000000000000000008152600401611eef90613c85565b60405180910390fd5b611f03838383612453565b611f0e600082611c7b565b6001600460008573ffffffffffffffffffffffffffffffffffffffff1673ffffffffffffffffffffffffffffffffffffffff1681526020019081526020016000206000828254611f5e9190614050565b925050819055506001600460008473ffffffffffffffffffffffffffffffffffffffff1673ffffffffffffffffffffffffffffffffffffffff1681526020019081526020016000206000828254611fb59190613fc9565b92505081905550816003600083815260200190815260200160002060006101000a81548173ffffffffffffffffffffffffffffffffffffffff021916908373ffffffffffffffffffffffffffffffffffffffff160217905550808273ffffffffffffffffffffffffffffffffffffffff168473ffffffffffffffffffffffffffffffffffffffff167fddf252ad1be2c89b69c2b068fc378daa952ba7f163c4a11628f55a4df523b3ef60405160405180910390a4505050565b60008060009054906101000a900473ffffffffffffffffffffffffffffffffffffffff169050816000806101000a81548173ffffffffffffffffffffffffffffffffffffffff021916908373ffffffffffffffffffffffffffffffffffffffff1602179055508173ffffffffffffffffffffffffffffffffffffffff168173ffffffffffffffffffffffffffffffffffffffff167f8be0079c531659141344cd1fd0a4f28419497f9722a3daafe3b4186f6b6457e060405160405180910390a35050565b61213d848484611e12565b61214984848484612463565b612188576040517f08c379a000000000000000000000000000000000000000000000000000000000815260040161217f90613c05565b60405180910390fd5b50505050565b606060405180602001604052806000815250905090565b606060008214156121ed576040518060400160405280600181526020017f3000000000000000000000000000000000000000000000000000000000000000815250905061236c565b600082905060005b6000821461221f57808061220890614176565b915050600a82612218919061401f565b91506121f5565b60008167ffffffffffffffff811115612261577f4e487b7100000000000000000000000000000000000000000000000000000000600052604160045260246000fd5b6040519080825280601f01601f1916602001820160405280156122935781602001600182028036833780820191505090505b5090505b60008514612365576001826122ac9190614050565b9150600a856122bb91906141bf565b60306122c79190613fc9565b7f010000000000000000000000000000000000000000000000000000000000000002818381518110612322577f4e487b7100000000000000000000000000000000000000000000000000000000600052603260045260246000fd5b60200101907effffffffffffffffffffffffffffffffffffffffffffffffffffffffffffff1916908160001a905350600a8561235e919061401f565b9450612297565b8093505050505b919050565b60007f80ac58cd000000000000000000000000000000000000000000000000000000007bffffffffffffffffffffffffffffffffffffffffffffffffffffffff1916827bffffffffffffffffffffffffffffffffffffffffffffffffffffffff1916148061243c57507f5b5e139f000000000000000000000000000000000000000000000000000000007bffffffffffffffffffffffffffffffffffffffffffffffffffffffff1916827bffffffffffffffffffffffffffffffffffffffffffffffffffffffff1916145b8061244c575061244b82612632565b5b9050919050565b61245e83838361269c565b505050565b60006124848473ffffffffffffffffffffffffffffffffffffffff166127b0565b15612625578373ffffffffffffffffffffffffffffffffffffffff1663150b7a026124ad611880565b8786866040518563ffffffff167c01000000000000000000000000000000000000000000000000000000000281526004016124eb9493929190613b21565b602060405180830381600087803b15801561250557600080fd5b505af192505050801561253657506040513d601f19601f820116820180604052508101906125339190612f0e565b60015b6125b9573d8060008114612566576040519150601f19603f3d011682016040523d82523d6000602084013e61256b565b606091505b506000815114156125b1576040517f08c379a00000000000000000000000000000000000000000000000000000000081526004016125a890613c05565b60405180910390fd5b805181602001fd5b63150b7a027c0100000000000000000000000000000000000000000000000000000000027bffffffffffffffffffffffffffffffffffffffffffffffffffffffff1916817bffffffffffffffffffffffffffffffffffffffffffffffffffffffff19161491505061262a565b600190505b949350505050565b60007f01ffc9a7000000000000000000000000000000000000000000000000000000007bffffffffffffffffffffffffffffffffffffffffffffffffffffffff1916827bffffffffffffffffffffffffffffffffffffffffffffffffffffffff1916149050919050565b6126a78383836127c3565b600073ffffffffffffffffffffffffffffffffffffffff168373ffffffffffffffffffffffffffffffffffffffff1614156126ea576126e5816127c8565b612729565b8173ffffffffffffffffffffffffffffffffffffffff168373ffffffffffffffffffffffffffffffffffffffff1614612728576127278382612811565b5b5b600073ffffffffffffffffffffffffffffffffffffffff168273ffffffffffffffffffffffffffffffffffffffff16141561276c576127678161297e565b6127ab565b8273ffffffffffffffffffffffffffffffffffffffff168273ffffffffffffffffffffffffffffffffffffffff16146127aa576127a98282612ac1565b5b5b505050565b600080823b905060008111915050919050565b505050565b600980549050600a600083815260200190815260200160002081905550600981908060018154018082558091505060019003906000526020600020016000909190919091505550565b6000600161281e84610d24565b6128289190614050565b905060006008600084815260200190815260200160002054905081811461290d576000600760008673ffffffffffffffffffffffffffffffffffffffff1673ffffffffffffffffffffffffffffffffffffffff168152602001908152602001600020600084815260200190815260200160002054905080600760008773ffffffffffffffffffffffffffffffffffffffff1673ffffffffffffffffffffffffffffffffffffffff168152602001908152602001600020600084815260200190815260200160002081905550816008600083815260200190815260200160002081905550505b6008600084815260200190815260200160002060009055600760008573ffffffffffffffffffffffffffffffffffffffff1673ffffffffffffffffffffffffffffffffffffffff16815260200190815260200160002060008381526020019081526020016000206000905550505050565b600060016009805490506129929190614050565b90506000600a60008481526020019081526020016000205490506000600983815481106129e8577f4e487b7100000000000000000000000000000000000000000000000000000000600052603260045260246000fd5b906000526020600020015490508060098381548110612a30577f4e487b7100000000000000000000000000000000000000000000000000000000600052603260045260246000fd5b906000526020600020018190555081600a600083815260200190815260200160002081905550600a6000858152602001908152602001600020600090556009805480612aa5577f4e487b7100000000000000000000000000000000000000000000000000000000600052603160045260246000fd5b6001900381819060005260206000200160009055905550505050565b6000612acc83610d24565b905081600760008573ffffffffffffffffffffffffffffffffffffffff1673ffffffffffffffffffffffffffffffffffffffff168152602001908152602001600020600083815260200190815260200160002081905550806008600084815260200190815260200160002081905550505050565b6040518060200160405280600190602082028036833780820191505090505090565b828054612b6e90614144565b90600052602060002090601f016020900481019282612b905760008555612bd7565b82601f10612ba957805160ff1916838001178555612bd7565b82800160010185558215612bd7579182015b82811115612bd6578251825591602001919060010190612bbb565b5b509050612be49190612be8565b5090565b5b80821115612c01576000816000905550600101612be9565b5090565b6000612c18612c1384613f11565b613ee0565b905082815260208101848484011115612c3057600080fd5b612c3b848285614102565b509392505050565b6000612c56612c5184613f41565b613ee0565b905082815260208101848484011115612c6e57600080fd5b612c79848285614102565b509392505050565b600081359050612c90816142bd565b92915050565b600081359050612ca5816142d4565b92915050565b600081359050612cba816142eb565b92915050565b600081519050612ccf816142eb565b92915050565b600082601f830112612ce657600080fd5b8135612cf6848260208601612c05565b91505092915050565b600082601f830112612d1057600080fd5b8135612d20848260208601612c43565b91505092915050565b600081359050612d3881614302565b92915050565b600060208284031215612d5057600080fd5b6000612d5e84828501612c81565b91505092915050565b60008060408385031215612d7a57600080fd5b6000612d8885828601612c81565b9250506020612d9985828601612c81565b9150509250929050565b600080600060608486031215612db857600080fd5b6000612dc686828701612c81565b9350506020612dd786828701612c81565b9250506040612de886828701612d29565b9150509250925092565b60008060008060808587031215612e0857600080fd5b6000612e1687828801612c81565b9450506020612e2787828801612c81565b9350506040612e3887828801612d29565b925050606085013567ffffffffffffffff811115612e5557600080fd5b612e6187828801612cd5565b91505092959194509250565b60008060408385031215612e8057600080fd5b6000612e8e85828601612c81565b9250506020612e9f85828601612c96565b9150509250929050565b60008060408385031215612ebc57600080fd5b6000612eca85828601612c81565b9250506020612edb85828601612d29565b9150509250929050565b600060208284031215612ef757600080fd5b6000612f0584828501612cab565b91505092915050565b600060208284031215612f2057600080fd5b6000612f2e84828501612cc0565b91505092915050565b60008060008060808587031215612f4d57600080fd5b600085013567ffffffffffffffff811115612f6757600080fd5b612f7387828801612cff565b945050602085013567ffffffffffffffff811115612f9057600080fd5b612f9c87828801612cff565b935050604085013567ffffffffffffffff811115612fb957600080fd5b612fc587828801612cff565b925050606085013567ffffffffffffffff811115612fe257600080fd5b612fee87828801612cff565b91505092959194509250565b60006020828403121561300c57600080fd5b600061301a84828501612d29565b91505092915050565b6000806040838503121561303657600080fd5b600061304485828601612d29565b925050602083013567ffffffffffffffff81111561306157600080fd5b61306d85828601612cff565b9150509250929050565b60008060006060848603121561308c57600080fd5b600061309a86828701612d29565b935050602084013567ffffffffffffffff8111156130b757600080fd5b6130c386828701612cff565b925050604084013567ffffffffffffffff8111156130e057600080fd5b6130ec86828701612cff565b9150509250925092565b6130ff81614084565b82525050565b61310e81614096565b82525050565b61311d816140a2565b82525050565b600061312e82613f86565b6131388185613f9c565b9350613148818560208601614111565b613151816142ac565b840191505092915050565b600061316782613f91565b6131718185613fad565b9350613181818560208601614111565b61318a816142ac565b840191505092915050565b60006131a082613f91565b6131aa8185613fbe565b93506131ba818560208601614111565b80840191505092915050565b600081546131d381614144565b6131dd8186613fbe565b945060018216600081146131f857600181146132095761323c565b60ff1983168652818601935061323c565b61321285613f71565b60005b8381101561323457815481890152600182019150602081019050613215565b838801955050505b50505092915050565b6000613252601883613fad565b91507f5468697320546f6b656e6964206e6f74206578697374732e00000000000000006000830152602082019050919050565b6000613292602b83613fad565b91507f455243373231456e756d657261626c653a206f776e657220696e646578206f7560008301527f74206f6620626f756e64730000000000000000000000000000000000000000006020830152604082019050919050565b60006132f8603283613fad565b91507f4552433732313a207472616e7366657220746f206e6f6e20455243373231526560008301527f63656976657220696d706c656d656e74657200000000000000000000000000006020830152604082019050919050565b600061335e602683613fad565b91507f4f776e61626c653a206e6577206f776e657220697320746865207a65726f206160008301527f64647265737300000000000000000000000000000000000000000000000000006020830152604082019050919050565b60006133c4601c83613fad565b91507f4552433732313a20746f6b656e20616c7265616479206d696e746564000000006000830152602082019050919050565b6000613404603383613fad565b91507f5468697320636c61696d6572206973206e6f7420617574686f72697a6520746f60008301527f20636c61696d2063657274696669636174652e000000000000000000000000006020830152604082019050919050565b600061346a602483613fad565b91507f4552433732313a207472616e7366657220746f20746865207a65726f2061646460008301527f72657373000000000000000000000000000000000000000000000000000000006020830152604082019050919050565b60006134d0601983613fad565b91507f4552433732313a20617070726f766520746f2063616c6c6572000000000000006000830152602082019050919050565b6000613510602c83613fad565b91507f4552433732313a206f70657261746f7220717565727920666f72206e6f6e657860008301527f697374656e7420746f6b656e00000000000000000000000000000000000000006020830152604082019050919050565b6000613576603883613fad565b91507f4552433732313a20617070726f76652063616c6c6572206973206e6f74206f7760008301527f6e6572206e6f7220617070726f76656420666f7220616c6c00000000000000006020830152604082019050919050565b60006135dc601f83613fad565b91507f52657175697265206d696e696d756d206d696e74696e6720616d6f756e742e006000830152602082019050919050565b600061361c602a83613fad565b91507f4552433732313a2062616c616e636520717565727920666f7220746865207a6560008301527f726f2061646472657373000000000000000000000000000000000000000000006020830152604082019050919050565b6000613682602983613fad565b91507f4552433732313a206f776e657220717565727920666f72206e6f6e657869737460008301527f656e7420746f6b656e00000000000000000000000000000000000000000000006020830152604082019050919050565b60006136e8602e83613fad565b91507f45524337323155524953746f726167653a2055524920736574206f66206e6f6e60008301527f6578697374656e7420746f6b656e0000000000000000000000000000000000006020830152604082019050919050565b600061374e602083613fad565b91507f4552433732313a206d696e7420746f20746865207a65726f20616464726573736000830152602082019050919050565b600061378e602c83613fad565b91507f4552433732313a20617070726f76656420717565727920666f72206e6f6e657860008301527f697374656e7420746f6b656e00000000000000000000000000000000000000006020830152604082019050919050565b60006137f4602083613fad565b91507f4f776e61626c653a2063616c6c6572206973206e6f7420746865206f776e65726000830152602082019050919050565b6000613834602983613fad565b91507f4552433732313a207472616e73666572206f6620746f6b656e2074686174206960008301527f73206e6f74206f776e00000000000000000000000000000000000000000000006020830152604082019050919050565b600061389a602f83613fad565b91507f4552433732314d657461646174613a2055524920717565727920666f72206e6f60008301527f6e6578697374656e7420746f6b656e00000000000000000000000000000000006020830152604082019050919050565b6000613900602183613fad565b91507f4552433732313a20617070726f76616c20746f2063757272656e74206f776e6560008301527f72000000000000000000000000000000000000000000000000000000000000006020830152604082019050919050565b6000613966603183613fad565b91507f4552433732313a207472616e736665722063616c6c6572206973206e6f74206f60008301527f776e6572206e6f7220617070726f7665640000000000000000000000000000006020830152604082019050919050565b60006139cc602c83613fad565b91507f455243373231456e756d657261626c653a20676c6f62616c20696e646578206f60008301527f7574206f6620626f756e647300000000000000000000000000000000000000006020830152604082019050919050565b6000613a32602083613fad565b91507f5468697320636572746966696361746520616c7265647920636c61696d65642e6000830152602082019050919050565b6000613a72601983613fad565b91507f456e74657265642070696e206973206e6f742076616c69642e000000000000006000830152602082019050919050565b613aae816140f8565b82525050565b6000613ac08284613195565b915081905092915050565b6000613ad78285613195565b9150613ae38284613195565b91508190509392505050565b6000613afb82846131c6565b915081905092915050565b6000602082019050613b1b60008301846130f6565b92915050565b6000608082019050613b3660008301876130f6565b613b4360208301866130f6565b613b506040830185613aa5565b8181036060830152613b628184613123565b905095945050505050565b6000602082019050613b826000830184613105565b92915050565b6000602082019050613b9d6000830184613114565b92915050565b60006020820190508181036000830152613bbd818461315c565b905092915050565b60006020820190508181036000830152613bde81613245565b9050919050565b60006020820190508181036000830152613bfe81613285565b9050919050565b60006020820190508181036000830152613c1e816132eb565b9050919050565b60006020820190508181036000830152613c3e81613351565b9050919050565b60006020820190508181036000830152613c5e816133b7565b9050919050565b60006020820190508181036000830152613c7e816133f7565b9050919050565b60006020820190508181036000830152613c9e8161345d565b9050919050565b60006020820190508181036000830152613cbe816134c3565b9050919050565b60006020820190508181036000830152613cde81613503565b9050919050565b60006020820190508181036000830152613cfe81613569565b9050919050565b60006020820190508181036000830152613d1e816135cf565b9050919050565b60006020820190508181036000830152613d3e8161360f565b9050919050565b60006020820190508181036000830152613d5e81613675565b9050919050565b60006020820190508181036000830152613d7e816136db565b9050919050565b60006020820190508181036000830152613d9e81613741565b9050919050565b60006020820190508181036000830152613dbe81613781565b9050919050565b60006020820190508181036000830152613dde816137e7565b9050919050565b60006020820190508181036000830152613dfe81613827565b9050919050565b60006020820190508181036000830152613e1e8161388d565b9050919050565b60006020820190508181036000830152613e3e816138f3565b9050919050565b60006020820190508181036000830152613e5e81613959565b9050919050565b60006020820190508181036000830152613e7e816139bf565b9050919050565b60006020820190508181036000830152613e9e81613a25565b9050919050565b60006020820190508181036000830152613ebe81613a65565b9050919050565b6000602082019050613eda6000830184613aa5565b92915050565b6000604051905081810181811067ffffffffffffffff82111715613f0757613f0661427d565b5b8060405250919050565b600067ffffffffffffffff821115613f2c57613f2b61427d565b5b601f19601f8301169050602081019050919050565b600067ffffffffffffffff821115613f5c57613f5b61427d565b5b601f19601f8301169050602081019050919050565b60008190508160005260206000209050919050565b600081519050919050565b600081519050919050565b600082825260208201905092915050565b600082825260208201905092915050565b600081905092915050565b6000613fd4826140f8565b9150613fdf836140f8565b9250827fffffffffffffffffffffffffffffffffffffffffffffffffffffffffffffffff03821115614014576140136141f0565b5b828201905092915050565b600061402a826140f8565b9150614035836140f8565b9250826140455761404461421f565b5b828204905092915050565b600061405b826140f8565b9150614066836140f8565b925082821015614079576140786141f0565b5b828203905092915050565b600061408f826140d8565b9050919050565b60008115159050919050565b6000819050919050565b60007fffffffff0000000000000000000000000000000000000000000000000000000082169050919050565b600073ffffffffffffffffffffffffffffffffffffffff82169050919050565b6000819050919050565b82818337600083830152505050565b60005b8381101561412f578082015181840152602081019050614114565b8381111561413e576000848401525b50505050565b6000600282049050600182168061415c57607f821691505b602082108114156141705761416f61424e565b5b50919050565b6000614181826140f8565b91507fffffffffffffffffffffffffffffffffffffffffffffffffffffffffffffffff8214156141b4576141b36141f0565b5b600182019050919050565b60006141ca826140f8565b91506141d5836140f8565b9250826141e5576141e461421f565b5b828206905092915050565b7f4e487b7100000000000000000000000000000000000000000000000000000000600052601160045260246000fd5b7f4e487b7100000000000000000000000000000000000000000000000000000000600052601260045260246000fd5b7f4e487b7100000000000000000000000000000000000000000000000000000000600052602260045260246000fd5b7f4e487b7100000000000000000000000000000000000000000000000000000000600052604160045260246000fd5b6000601f19601f8301169050919050565b6142c681614084565b81146142d157600080fd5b50565b6142dd81614096565b81146142e857600080fd5b50565b6142f4816140ac565b81146142ff57600080fd5b50565b61430b816140f8565b811461431657600080fd5b5056fea26469706673582212208675ae5971dca305f856943b40c169d7a97d706726d260abe0f38b02bad9a89264736f6c63430008000033a2646970667358221220176aa862cec033a2cf2dc3af1bff929ef6a8081b3d045a5c30fe7c71022f94da64736f6c63430008000033",
  "immutableReferences": {},
  "source": "pragma solidity >=0.4.22 <0.9.0;\r\n\r\nimport \"@openzeppelin/contracts/access/Ownable.sol\";\r\nimport \"@openzeppelin/contracts/token/ERC721/ERC721.sol\";\r\nimport \"@openzeppelin/contracts/token/ERC721/extensions/ERC721Enumerable.sol\";\r\nimport \"@openzeppelin/contracts/utils/Counters.sol\";\r\n\r\ncontract OnescanVerify is Ownable {\r\n    address private admin;\r\n    struct IssuerRequest {\r\n        address issuerAddress;\r\n        string issuerCID;\r\n        string contractType;\r\n        bool approval; \r\n    }\r\n    struct IssuerContract {\r\n        address contractaddress;\r\n        string contractCID;\r\n        uint256 requestIndex;\r\n    }\r\n    struct IssuerContractArray {\r\n        IssuerContract[] contractArray;\r\n    }\r\n    IssuerRequest[] public issuerRequest;\r\n    uint256 public approvalCounts;\r\n    mapping(address=>IssuerContractArray) issuerListOfContract;\r\n    \r\n    constructor() {\r\n        admin = msg.sender;\r\n    }\r\n\r\n    function applyForRequest(string memory _issuerCID, string memory _contractType) public {\r\n        issuerRequest.push(IssuerRequest({\r\n            issuerAddress:msg.sender,\r\n            issuerCID:_issuerCID,\r\n            contractType:_contractType,\r\n            approval:false\r\n        }));\r\n    }\r\n\r\n    function approveRequest(uint256 _index) public onlyOwner{\r\n        require(issuerRequest[_index].approval == false, 'Issuer request already approved.');\r\n        issuerRequest[_index].approval = true;\r\n        approvalCounts = approvalCounts + 1;\r\n    }\r\n\r\n    function getOwnerContract(address _issuerAddress) public view returns(address,IssuerContract[] memory) {\r\n        return(_issuerAddress,issuerListOfContract[_issuerAddress].contractArray);\r\n    }\r\n\r\n    function createNewContract(uint256 _index) public {\r\n        require(issuerRequest[_index].issuerAddress == msg.sender && issuerRequest[_index].approval == true,'Issuer Request is not approved.');\r\n        address newContract = address(new physicalCertificate());\r\n        \r\n        issuerListOfContract[msg.sender].contractArray.push(IssuerContract({\r\n            contractaddress:newContract,\r\n            contractCID:issuerRequest[_index].issuerCID,\r\n            requestIndex: _index\r\n        }));\r\n    }\r\n}\r\n\r\ncontract physicalCertificate is Ownable,ERC721,ERC721Enumerable {\r\n    using Counters for Counters.Counter;\r\n    Counters.Counter private _tokenIds;\r\n\r\n    struct Claimer {\r\n        string certificateCID;\r\n        string secretPassword;\r\n        string secretPin;\r\n        address claimerAddress;\r\n        bool claimStatus;\r\n    }\r\n\r\n    mapping(uint256=>Claimer) tokenIdToClaimer;\r\n    mapping(uint256 => string) private _tokenURIs;\r\n\r\n    constructor() ERC721('Physical Certificate NFT','PCN'){}\r\n\r\n    function mint(string memory _certificateCID,string memory _secretPassword,string memory _secretPin,string memory _tokenURI) public payable onlyOwner{\r\n        require(msg.value >= 0.01 ether, 'Require minimum minting amount.');\r\n        uint256 _newTokenId = _tokenIds.current();\r\n        _mint(msg.sender,_newTokenId);\r\n        _tokenIds.increment();\r\n        _setTokenURI(_newTokenId, _tokenURI);\r\n        setClaimerDetail(_certificateCID,_secretPassword,_secretPin,_newTokenId);\r\n        \r\n        \r\n    }\r\n\r\n    function _setTokenURI(uint256 tokenId, string memory _tokenURI) internal virtual {\r\n        require(_exists(tokenId), \"ERC721URIStorage: URI set of nonexistent token\");\r\n        _tokenURIs[tokenId] = _tokenURI;\r\n    }\r\n\r\n    function setClaimerDetail(string memory _certificateCID,string memory _secretPassword,string memory _secretPin,uint256 _tokenId) internal {\r\n        Claimer memory newClaimerDetails = Claimer({\r\n            certificateCID:_certificateCID,\r\n            secretPassword:_secretPassword,\r\n            secretPin:_secretPin,\r\n            claimerAddress: address(0x00),\r\n            claimStatus:false\r\n        });\r\n        tokenIdToClaimer[_tokenId] = newClaimerDetails;\r\n\r\n    }\r\n\r\n    function claimCertificate(uint256 _tokenId,string memory _secretPassword,string memory _secretPin) public returns (bool result){\r\n        require(_exists(_tokenId), 'This Tokenid not exists.');\r\n        Claimer memory newClaimerCertificate = tokenIdToClaimer[_tokenId];\r\n        require(newClaimerCertificate.claimStatus = false, 'This certificate alredy claimed.');\r\n        require((keccak256(abi.encodePacked(newClaimerCertificate.secretPassword)) == keccak256(abi.encodePacked(_secretPassword)) && keccak256(abi.encodePacked(newClaimerCertificate.secretPin)) == keccak256(abi.encodePacked(_secretPin))), 'This claimer is not authorize to claim certificate.');\r\n        newClaimerCertificate.claimerAddress = msg.sender;\r\n        newClaimerCertificate.claimStatus = true;\r\n        transferOwnership(msg.sender);\r\n        return newClaimerCertificate.claimStatus;\r\n    }\r\n\r\n    function checkAuthenticity(uint256 _tokenId,string memory _secretPin) public view returns (bool result) {\r\n        require(_exists(_tokenId), 'This Tokenid not exists.');\r\n        Claimer storage getCertificate = tokenIdToClaimer[_tokenId];\r\n        require(keccak256(abi.encodePacked(getCertificate.secretPin)) == keccak256(abi.encodePacked(_secretPin)), 'Entered pin is not valid.');\r\n        return true;\r\n    }\r\n\r\n    function getSecretPin() public view onlyOwner returns(uint256 _result) {\r\n        uint256 randomNumber = uint256(vrf());\r\n        return (randomNumber % 4);\r\n    }\r\n\r\n    function vrf() public view returns (bytes32 result) {\r\n        uint[1] memory bn;\r\n        bn[0] = block.number;\r\n        assembly {\r\n        let memPtr := mload(0x40)\r\n        if iszero(staticcall(not(0), 0xff, bn, 0x20, memPtr, 0x20)) {\r\n            invalid()\r\n        }\r\n        result := mload(memPtr)\r\n        }\r\n    }\r\n\r\n    function supportsInterface(bytes4 interfaceId) public view virtual override(ERC721, ERC721Enumerable) returns (bool) {\r\n        return super.supportsInterface(interfaceId);\r\n    }\r\n\r\n    function _beforeTokenTransfer(\r\n        address from,\r\n        address to,\r\n        uint256 tokenId\r\n    ) internal virtual override(ERC721, ERC721Enumerable) {\r\n        super._beforeTokenTransfer(from, to, tokenId);\r\n    }\r\n\r\n}",
  "sourcePath": "F:\\Blockchain\\OneScan-Verify\\backend\\contracts\\OnescanVerify.sol",
  "compiler": {
    "name": "solc",
    "version": "0.8.0+commit.c7dfd78e.Emscripten.clang"
  },
  "schemaVersion": "3.4.3",
  "updatedAt": "2021-09-20T03:16:13.666Z",
  "networkType": "ethereum",
  "devdoc": {
    "kind": "dev",
    "methods": {
      "owner()": {
        "details": "Returns the address of the current owner."
      },
      "renounceOwnership()": {
        "details": "Leaves the contract without owner. It will not be possible to call `onlyOwner` functions anymore. Can only be called by the current owner. NOTE: Renouncing ownership will leave the contract without an owner, thereby removing any functionality that is only available to the owner."
      },
      "transferOwnership(address)": {
        "details": "Transfers ownership of the contract to a new account (`newOwner`). Can only be called by the current owner."
      }
    },
    "version": 1
  },
  "userdoc": {
    "kind": "user",
    "methods": {},
    "version": 1
  }
}